:020000040000FA
:100000000C9459000C9481000C9481000C94810094
:100010000C9481000C9481000C9481000C9481005C
:100020000C9481000C9481000C9481000C9481004C
:100030000C9481000C9481000C9481000C9481003C
:100040000C944F0A0C9481000C94BF0A0C94990AEA
:100050000C9481000C9481000C9481000C9481001C
:100060000C9481000C9481000000803FCDCCCC3DED
:100070006F12833A95BFD6337D1D9026B3CE010C07
:10008000000020410000C84200401C4620BCBE4C7D
:10009000CA1B0E5AAEC59D74CDCCCC3D0AD7233CAD
:1000A00017B7D13877CC2B329595E6241FB14F0A7C
:1000B000930C11241FBECFEFD8E0DEBFCDBF22E0EE
:1000C000ACE8B1E001C01D92A633B207E1F711E040
:1000D000A0E0B1E0ECE3F2E202C005900D92AC3892
:1000E000B107D9F710E0C9E5D0E004C02197FE01BF
:1000F0000E940C0FC835D107C9F70E94F10A0C9471
:100100001C110C9400000895AF92BF92CF92DF9221
:10011000EF92FF920F931F93CF93DF936C017B01BC
:100120008B01040F151FEB015E01AE18BF08C0174D
:10013000D10759F06991D601ED91FC910190F081C0
:10014000E02DC6010995892B79F7C501DF91CF9183
:100150001F910F91FF90EF90DF90CF90BF90AF90E5
:100160000895FC01538D448D252F30E0842F90E0BD
:10017000821B930B541710F0CF96089501970895A2
:10018000FC01918D828D981761F0A28DAE0FBF2F6B
:10019000B11D5D968C91928D9F5F9F73928F90E0C1
:1001A00008958FEF9FEF08952FB7F89480919101F4
:1001B00090919201A0919301B09194012FBF8093EF
:1001C0009D0190939E01A0939F01B093A00185E9AA
:1001D00091E00E94C00097FF26C02FB7F89480914D
:1001E000910190919201A0919301B09194012FBF40
:1001F00040919D0150919E0160919F017091A001DD
:10020000841B950BA60BB70B4091990150919A0155
:1002100060919B0170919C0184179507A607B70711
:10022000B0F28FEF9FEF0895FC01918D828D9817AA
:1002300031F0828DE80FF11D858D90E008958FEFEC
:100240009FEF0895FC01918D228D892F90E0805CB5
:100250009F4F821B91098F739927089585E991E03B
:100260000E94220121E0892B09F420E0822F0895C9
:1002700080E090E0892B29F00E942E0181110C94DE
:1002800000000895FC01A48DA80FB92FB11DA35A39
:10029000BF4F2C91848D90E001968F739927848FA6
:1002A000A689B7892C93A089B1898C9183708064C9
:1002B0008C93938D848D981306C00288F389E02D6A
:1002C00080818F7D80830895EF92FF920F931F931B
:1002D000CF93DF93EC0181E0888F9B8D8C8D9813F9
:1002E0001AC0E889F989808185FF15C09FB7F89405
:1002F000EE89FF896083E889F98980818370806451
:1003000080839FBF81E090E0DF91CF911F910F919B
:10031000FF90EF900895F62E0B8D10E00F5F1F4FAA
:100320000F731127E02E8C8D8E110CC00FB607FCB9
:10033000FACFE889F989808185FFF5CFCE010E9447
:100340004201F1CFEB8DEC0FFD2FF11DE35AFF4F72
:10035000F0829FB7F8940B8FEA89FB8980818062D5
:10036000CFCFCF93DF93EC01888D8823B9F0AA8992
:10037000BB89E889F9898C9185FD03C0808186FD60
:100380000DC00FB607FCF7CF8C9185FFF2CF8081AF
:1003900085FFEDCFCE010E944201E9CFDF91CF91E1
:1003A0000895CF93DF93EC0188819981DC01ED9171
:1003B000FC910190F081E02D09952A813B81820F0B
:1003C000931F9B838A83DF91CF910895CF93DF930F
:1003D000EC0188819981DC01ED91FC910280F3812F
:1003E000E02D09952A813B81820F931F9B838A838D
:1003F000DF91CF9108958F929F92AF92BF92CF924B
:10040000DF92EF92FF920F931F93CF93DF93CDB7BD
:10041000DEB766970FB6F894DEBF0FBECDBF6C0196
:100420008E01095E1F4F78018AE0882E912CA12C45
:10043000B12CCB01BA01A50194010E94EA0E942FC0
:10044000852F605DF80162938F01A901692F782FD4
:10045000411551056105710561F7A7014E1B5F0B41
:10046000BF01C6010E94E60166960FB6F894DEBF92
:100470000FBECDBFDF91CF911F910F91FF90EF90F5
:10048000DF90CF90BF90AF909F908F900895EF92A4
:10049000FF920F931F93CF93DF93EC017B0162E2F6
:1004A0000E94D1018701F80161918F01662391F0CB
:1004B000E4E2F1E0F280FF2049F032968181681396
:1004C000F9CF6CE5CE010E94D1016F2DCE010E94C3
:1004D000D101E9CF62E2CE01DF91CF911F910F915F
:1004E000FF90EF900C94D10180339CF08A3324F07C
:1004F0008F3524F08B3724F481E0089581344CF05B
:100500008B35D4F393ED980F81E09230B0F380E017
:1005100008958B32B9F7F0CFFC01808581110AC0B4
:10052000A581B681CD010196968385838C918783C1
:1005300081E08087878108959F92AF92BF92CF928A
:10054000DF92EF92FF920F931F93CF93DF9300D030
:1005500000D01F92CDB7DEB78C010E948C02B82E5E
:10056000D80118961C92F12CE12C70EFA72EC8012F
:100570000E948C02F8011086B81609F4CBC08111D4
:1005800019C0F801E55BFF4F82E090E09183808322
:1005900080E00F900F900F900F900F90DF91CF9110
:1005A0001F910F91FF90EF90DF90CF90BF90AF9091
:1005B0009F9008958C3509F0A2C0C8010E948C025A
:1005C0008823F9F2E4E2F1E0853709F08CC0D80124
:1005D00018961C9264E0962ED12CC12CC8010E9462
:1005E0008C02882371F281344CF48053803148F0BE
:1005F000F801E55BFF4F83E090E0C8CF8F7D875324
:10060000F5CF54E0CC0CDD1C5A95E1F7C82AF8016F
:1006100010869A949110E2CFC601985D811594409E
:1006200020F4760123E0F222A2CFC6019C5D811561
:10063000944078F5B3E0DB22C701982F8827990F03
:10064000990F8C299D29B0E0A0E011961982282FDE
:100650002F7320682A8336E0B695A79597958795DE
:100660003A95D1F78032910530F5806C8B83FE018D
:1006700034968291882309F47ACFD8014D915C9108
:1006800011979A012F5F3F4F2D933C93DA018C9382
:10069000F0CFC601B0E0A0E080389105A105B1051A
:1006A000A8F6D801ED91FC911197CF0101968D9399
:1006B0009C93C0825CCF282F2F7320682B8326E069
:1006C000969587952A95E1F78031910528F4806EFB
:1006D0008C83FE013596CDCF80688C83AD82FE0180
:1006E0003696C7CF32969081992309F481CF89132A
:1006F000F9CF8181882309F47BCFF8011086D801D6
:10070000ED91FC9111979F012F5F3F4F2D933C93EB
:1007100080832DCFD8010190F081E02DCF0101968B
:100720008D939C93108281E034CF1F93CF93DF93FE
:10073000EC01162F0E948C02811306C0188681E0FE
:10074000DF91CF911F91089580E0FACFCF93DF938F
:10075000EC01CE010E948C028B303CF489304CF4C9
:10076000882349F081E08C8310C08D3011F08032F5
:10077000C9F71886EECF8C8181110AC081E090E024
:10078000C55BDF4F9983888380E0DF91CF91089527
:1007900082E090E0F5CFCF93DF93DC01EB01EC81B9
:1007A000FD818A819B810896E817F90740F481E072
:1007B0008887F0E0E0E0CF01DF91CF91089538978E
:1007C000FD83EC833097B9F31296CD91DC911397AA
:1007D000209791F0CF018C1B9D0B23E09595879579
:1007E0002A95E1F78D831396FC93EE931297158269
:1007F000148217821682DFCF1196FC93EE93F3CF0B
:100800004F925F926F927F92BF92CF92DF92EF9260
:10081000FF920F931F93CF93DF93EC018B01E42E94
:100820000E94A603F82E811110C0F12C8F2DDF91AC
:10083000CF911F910F91FF90EF90DF90CF90BF90DD
:100840007F906F905F904F900895CE010E948C0230
:10085000873209F4F4C00CF5823209F4F0C0CE01FD
:100860000E948C02B82E6E01FBE0CF0ED11CE12C51
:1008700036018B2D0E947402882309F4F5C02FE302
:10088000E21609F4F1C01886E394F601B1926F0103
:10089000CE010E948C02B82EECCF8B3509F44AC0F1
:1008A0008B37E9F6F8018481807880628483118235
:1008B000108213821282EE2009F447C01886CE01FE
:1008C0000E94A603882309F4B0CF6DE7CE010E94F1
:1008D00095038111ABCFEA94888199819B838A83A8
:1008E000CE010E948C02873209F46FC0823209F473
:1008F0006CC0CE010E948C02D82E0E947402882304
:1009000009F45EC01886E881F981CF0101969983C8
:100910008883D082CE010E948C02D82E0E9474025D
:100920008111F0CFE881F981CF0101969983888305
:10093000108251C0F80184818078806484831182A0
:10094000108213821282E11007C0C55BDF4F85E081
:1009500090E09983888369CF1886CE010E94A60310
:10096000882309F462CF6DE5CE010E9495038111C1
:100970005DCFEA9469857A85C8010E94CB03009710
:1009800029F4C55BDF4F84E090E0E3CF4E2DBC013E
:10099000CE010E940004882309F447CFCE010E94B3
:1009A000A603882309F441CF6DE5CE010E9495038B
:1009B00081113CCF6CE2CE010E9495038111DACF08
:1009C000C55BDF4F83E090E0C4CFCE010E949C0264
:1009D000882309F42ACFCE010E94A603882309F4B4
:1009E00024CF6AE3CE010E949503882349F3CA808D
:1009F000DB80F801608071806114710409F4B0C17A
:100A0000F30166817781C616D70609F4A7C1C11420
:100A1000D10449F06115710531F0C6010E94FD1045
:100A2000892B09F49BC1F3018581882309F498C1BE
:100A3000F8E08F02C0011124680E791EDDCF888195
:100A400099819B838A83CE010E949C02F82E882381
:100A500009F4EBCE2A813B81F8018481807884609F
:100A6000848331832083E2CEFE01EE0DF11D1386D7
:100A70008B85843781F4F801848180788660848353
:100A800081E08083F4E0EF1609F4D0CEC55BDF4F40
:100A900082E090E05ECF863641F4F8018481807870
:100AA000866084831082F5E0EECF8E3621F424E058
:100AB000E212ECCFBBCE8B32D9F1F3018D32D1F5FE
:100AC000FE013C96BF2C808190ED980F9A3018F073
:100AD0008E3209F075CF6F0160E070E0CB01F60156
:100AE0002191A0ED4A2E420E39E0341528F16A39E1
:100AF00049E97407840749E1940740F5AAE0B0E0AA
:100B00009B01AC010E94E40D512C712C612CA301BE
:100B10009201209530954095509526173707480744
:100B20005907A0F0640D751D861D971D6F01D7CF65
:100B3000FE013C96B12CC7CF211108C0BB2071F13A
:100B400061307105810550E89507A0F0E12CEAE0DD
:100B50004E2E512C612C712C61157105F0E88F0718
:100B6000910530F1A30192010E94EA0ECA01B90178
:100B7000E394F2CFF801248120782A6024839B013A
:100B8000AC0188279927DC01821B930BA40BB50BC2
:100B900080839183A283B383FB2C48CEF801248108
:100BA00020782860248360837183828393833ECE80
:100BB000D601F60121916F0130ED320F3A3010F479
:100BC000E394F6CF2E32F1F4FD013196DF01319638
:100BD0002C9150EDD52ED20E29E02D1598F06C3CBD
:100BE0003CEC73073CE08307910580F7AAE0B0E096
:100BF0009B01AC010E94E40D6D0D711D811D911DC5
:100C0000EA94E4CF2C912F7D253409F08CC0119605
:100C10002C9111972D32D9F512967F2CFD0130E0E1
:100C200020E0CE2C0E2C000CDD084AE0542EDF0113
:100C3000619040ED460D4A3008F043C0529EA0013D
:100C4000539E500D1124262D660C330B2053310971
:100C5000240F351FA9014C0D5D1D473251053CF392
:100C6000F80184817720D1F040E050E060E070E846
:100C7000B11003C040E050E0BA0180788C60F80108
:100C800084834083518362837383F72CCFCD2B32CF
:100C900019F01196712CC2CF1296FCCF40E050E0B3
:100CA00060E87FEFB11004C040E050E060E87FE70B
:100CB00080788C60F80184834083518362837383DE
:100CC000B5CD772019F03195219531094C9141111D
:100CD00077CEE901CE0DD11DE7FCDA950E94C50C57
:100CE0001C161D061CF5E12CC0FF0CC024E0E29E82
:100CF000F0011124E058FF4F259135914591549111
:100D00000E94260DD595C795E394209769F7B110F9
:100D10009058F801248120782C60248360837183AB
:100D20008283938383CD30E020E0D0CFD195C195ED
:100D3000D109E12C209759F3C0FF0CC044E0E49E98
:100D4000F0011124E856FF4F2591359145915491BA
:100D50000E94260DD595C795E394ECCFB3010FC043
:100D600069857A85C8010E94CB03FC01892B09F4AF
:100D700008CE84818F778483D782C682BF014E2DAF
:100D8000CE010E940004882309F44FCDCE010E94B9
:100D9000A603882309F449CD6DE7CE010E9495038F
:100DA000811144CD6CE2CE010E949503882309F4A1
:100DB00007CECE010E94A60381118ECD36CDCF92F3
:100DC000DF92EF92FF920F931F93CF93DF93CDB7F4
:100DD000DEB7CD54D1090FB6F894DEBF0FBECDBF3C
:100DE0008C01FB0180819181009711F484E391E0F3
:100DF000F801208131813383228326813781358335
:100E0000248310861586C12CD12C7601FB01C0806D
:100E1000D180C982DA82EB82FC821D829F838E831D
:100E200019861B870A872E961FAE1EAE2E97B80115
:100E3000675F7F4FCE0101960E9400042E968EAD13
:100E40009FAD2E97009749F42885222331F0F801B1
:100E5000258523FF02C083E090E0C35BDF4F0FB620
:100E6000F894DEBF0FBECDBFDF91CF911F910F91E0
:100E7000FF90EF90DF90CF9008950F931F93CF9343
:100E8000DF93FC01048115810115110539F4FB0183
:100E90001082DF91CF911F910F9108954150510918
:100EA0004017510708F48A01EB01FC016081718150
:100EB000A801CE010E940D11C00FD11F1882E9CFE9
:100EC000FC0101900020E9F73197AF01481B590B55
:100ED000BC0185E991E00C948400FB0101900020A5
:100EE000E9F73197AF01461B570B0C94E6012F929F
:100EF0003F924F925F926F927F928F929F92AF92AA
:100F0000BF92CF92DF92EF92FF920F931F93CF93F6
:100F1000DF93CDB7DEB76C970FB6F894DEBF0FBE88
:100F2000CDBF8C011B01DC0114968C9114978F7737
:100F3000863009F481C278F48230B0F0843008F051
:100F400059C212964D915C9113976D917C91C1019C
:100F50000E94E60106C28C30B1F160F4883009F4D9
:100F600066C28A3009F44CC265E371E0C1010E9497
:100F70006D07EEC1803209F410C28034A9F76BE529
:100F8000C1010E94D101F8010081118101151105F3
:100F900009F4E3C1B101C8010E947707D801159691
:100FA0008C91882309F4D9C1B8E08B02C0011124C7
:100FB000080F191F0115110509F4CFC16CE2C10119
:100FC0000E94D101E3CFF801C080D180E280F3809C
:100FD000A7019601C701B6010E94C00C8111C4CFC0
:100FE00020E030E0A901C701B6010E94C00C8823AF
:100FF00079F0A7019601C701B6010E94360E9B0148
:10100000AC01C701B6010E94C00C882309F4ACCF23
:1010100020E030E0A901C701B6010E94C00C87FFA3
:1010200008C06DE2C1010E94D101F7FAF094F7F80F
:10103000F09420E836E948E15BE4C701B6010E947C
:10104000D10E87FD81C074E1A72EB12C00E210E023
:10105000188E1F8AF501E058FF4F25913591459173
:101060005491C701B6010E94D10E87FD13C0F5014E
:10107000E856FF4F2591359145915491C701B6012E
:101080000E94260D6B017C012F89388D200F311FA6
:10109000388F2F8B1595079534E0A31AB1088CEF84
:1010A000A8168FEFB806B1F655245A9420E030E028
:1010B000A901C701B6010E94D10E18160CF04BC051
:1010C0002CEA35EC47E257E3C701B6010E94C00C99
:1010D00018160CF440C0A52DB4E0AB02C0011124D9
:1010E000912C812CFC01E859FF4F3F019C012058B5
:1010F0003F4F59013FEF531671F1F301E80DF91D10
:101100006591759185919491A70196010E94D10EE8
:1011100018169CF4F501E80DF91D259135914591BE
:101120005491C701B6010E94260D6B017C018F8985
:10113000988D801B910B988F8F8B159507955A94DE
:1011400094E0891A9108D6CF00E210E055E0552EC0
:10115000188E1F8AABCFC701B6010E94A20E4B01A9
:101160005C012B013C0106E080E492E4AFE0B0E0DA
:10117000898F9A8FAB8FBC8F102F01509AE0491640
:10118000510461047104C8F0698D7A8D8B8D9C8D3A
:101190002AE030E040E050E00E94EA0E298F3A8FCA
:1011A0004B8F5C8FC301B2012AE030E040E050E099
:1011B0000E94EA0E29013A01DFCFC501B4010E9465
:1011C000C50C9B01AC01C701B6010E94350E6B0135
:1011D0007C01698D7A8D8B8D9C8D0E94C50C9B0145
:1011E000AC01C701B6010E94260D2B013C010E94F3
:1011F000A20E6B017C010E94C50C9B01AC01C301D6
:10120000B2010E94350E9B01AC010E94360E0E9475
:10121000A20EC60ED71EE81EF91E898D9A8DAB8DC3
:10122000BC8DC816D906EA06FB06D8F09FEF891ACE
:10123000990AA90AB90AAF89B88DAB2B39F1BAE07E
:101240008B169104A104B10408F1EF89F88D319651
:10125000F88FEF8BC12CD12C7601812C912C54016D
:1012600083942AE0422E512C612C712CC701B601C7
:10127000A30192010E94EA0E672B682B692B51F49F
:10128000111644F469017A011150F0CFC12CD12C10
:101290007601E7CFB501A401C1010E94FB01112332
:1012A00071F14E01F1E18F0E911C012F54019AE072
:1012B000492E512C612C712C015068F0C701B601E8
:1012C000A30192010E94EA0E605DD4016E934D016C
:1012D00069017A01F1CF812F90E0BC016095709592
:1012E000F501E81BF90B31978EE2808344275527DF
:1012F000461B570B6A0D7B1DC1010E94E601EF8959
:10130000F88DEF2B29F165E6C1010E94D1010F890B
:10131000188D17FF07C06DE2C1010E94D101119520
:1013200001951109FE0177969F018AE0E82EF12CC4
:10133000C801B7010E94D60E805D82938B01672B96
:10134000B9F7A9014E1B5F0BBF01C1010E94E60165
:10135000D10112968D919C9107C06DE5C1010E944B
:10136000D101F101828193816C960FB6F894DEBFB2
:101370000FBECDBFDF91CF911F910F91FF90EF90E6
:10138000DF90CF90BF90AF909F908F907F906F90A5
:101390005F904F903F902F9008956BE7C1010E949E
:1013A000D101D8010D911C910115110509F1F80128
:1013B00066817781C1010E9447026AE3C1010E94F0
:1013C000D101B101C8010E947707D80115968C910F
:1013D000882371F0B8E08B02C0011124080F191F97
:1013E0000115110529F06CE2C1010E94D101DCCF89
:1013F0006DE7B4CF6D917C91C1010E944702B1CFDE
:10140000CD90DD90ED90FC90B701A601F7FE0BC0EA
:101410006DE2C1010E94D10144275527BA014C1940
:101420005D096E097F09C1010E94FB019ACF4D91B0
:101430005D916D917C91F7CF8C916AE371E08111A0
:1014400002C06FE371E0C1010E946D078ACF0F9364
:101450001F93CF93DF93EC0188819981009759F016
:101460002A813B812617370730F081E0DF91CF9149
:101470001F910F9108958B016F5F7F4F0E9437106E
:10148000009759F0998388831B830A832C813D81BF
:10149000232B59F7FC011082E8CF80E0E7CF1F92A1
:1014A0000F920FB60F9211242F933F938F939F9318
:1014B000AF93BF938091910190919201A09193017C
:1014C000B09194013091900126E0230F2D3758F50B
:1014D0000296A11DB11D20939001809391019093DC
:1014E0009201A0939301B093940180918C0190910B
:1014F0008D01A0918E01B0918F010196A11DB11DAA
:1015000080938C0190938D01A0938E01B0938F01F5
:10151000BF91AF919F918F913F912F910F900FBEEF
:101520000F901F90189529E8230F0396A11DB11D58
:10153000D2CF1F920F920FB60F9211242F933F9389
:101540004F935F936F937F938F939F93AF93BF93CB
:10155000EF93FF9385E991E00E944201FF91EF91A3
:10156000BF91AF919F918F917F916F915F914F91BB
:101570003F912F910F900FBE0F901F9018951F92C3
:101580000F920FB60F9211242F938F939F93EF9387
:10159000FF93E091A501F091A6018081E091AB015C
:1015A000F091AC0182FD1BC090818091AE018F5FF4
:1015B0008F732091AF01821741F0E091AE01F0E00E
:1015C000EB56FE4F958F8093AE01FF91EF919F9167
:1015D0008F912F910F900FBE0F901F9018958081C3
:1015E000F4CFCF93DF93CDB7DEB7AF970FB6F894B4
:1015F000DEBF0FBECDBF789484B5826084BD84B554
:10160000816084BD85B5826085BD85B5816085BDFD
:1016100080916E00816080936E00109281008091B5
:10162000810082608093810080918100816080933D
:101630008100809180008160809380008091B10062
:1016400084608093B1008091B00081608093B0008D
:1016500080917A00846080937A0080917A00826021
:1016600080937A0080917A008E7F80937A008091B7
:101670007A00806880937A001092C100E091A50101
:10168000F091A60182E08083E091A101F091A20196
:101690001082E091A301F091A40188E08083109270
:1016A000AD01E091A901F091AA0186E08083E0916B
:1016B000A701F091A801808180618083E091A7015A
:1016C000F091A801808188608083E091A701F0916A
:1016D000A801808180688083E091A701F091A80132
:1016E00080818F7D80839AE0892E912CA12CB12C52
:1016F00085E991E00E942201892B09F407C16DB6AA
:101700007EB61BA21AA21DA21CA21FA21EA270E0DE
:1017100060E0CE0182960E94270A2AA13BA1811196
:101720002BC02115310519F0C9010E94AE0F1BA273
:101730001AA21FA21EA21DA21CA20E94D4000EA1CA
:101740001FA197FD21C089831A820F5F1F4FB80127
:10175000CE0182960E94270A882379F32AA13BA111
:101760008EA19FA1BE016F5F7F4F820F931F0E94CA
:1017700006111FA30EA3E1CF1FA21EA264E371E016
:10178000C9010E940611D9CF8DB79EB7801B910B5E
:101790000FB6F8949EBF0FBE8DBFEDB7FEB7319662
:1017A0006F010115110531F0A801BF01CE0182962C
:1017B0000E943D071801012E000C4408550857FEF1
:1017C0008FC06DE285E991E00E94640122273327F2
:1017D000A901221933094409550919A2CE0181969C
:1017E0007C01CA01B901A50194010E94EA0E605D65
:1017F000F70162937F01211531054105510589F7F4
:10180000E114F10419F0C7010E94600785E491E03A
:101810000E946007C8010E94120F9C01200F311F17
:10182000009711F430E020E09B838A839D838C83B2
:101830003F832E83398728871A861F86DDA6CCA68C
:101840004AE0BE01645D7F4FCE0102960E94DF0632
:101850007C01892B99F088E491E00E946007F701F0
:10186000EE0FFF1FE85EFE4F80819181009711F01F
:101870000E94600785E491E00E9460070115110550
:1018800031F0A801B601CE0182960E943D07DFA685
:10189000CEA64AE0BE01625D7F4FCE0102960E9455
:1018A000DF0685E991E099A788A71BA61AA6BE01C5
:1018B000685D7F4FCE010B960E9477078A819B81DE
:1018C000009711F00E94AE0F8AA19BA1009711F022
:1018D0000E94AE0F0FB6F8947EBE0FBE6DBE08CF4D
:1018E000A201910119A2CE0181967C01CA01B90120
:1018F000A50194010E94EA0E605DF70162937F01E9
:10190000211531054105510589F77ACF80E090E036
:10191000892B09F4EDCE0E942E01882309F4E8CE2C
:101920000E940000E5CEE5E9F1E01382128288EE24
:1019300093E0A0E0B0E084839583A683B7838AE038
:1019400091E09183808385EC90E09587848784EC97
:1019500090E09787868780EC90E0918B808B81EC7C
:1019600090E0938B828B82EC90E0958B848B86EC5D
:1019700090E0978B868B118E128E138E148E0895A5
:101980000E94020D08F481E00895E89409C097FBD5
:101990003EF490958095709561957F4F8F4F9F4F46
:1019A0009923A9F0F92F96E9BB279395F69587958A
:1019B00077956795B795F111F8CFFAF4BB0F11F44D
:1019C00060FF1BC06F5F7F4F8F4F9F4F16C08823F4
:1019D00011F096E911C0772321F09EE8872F762F2A
:1019E00005C0662371F096E8862F70E060E02AF06B
:1019F0009A95660F771F881FDAF7880F9695879557
:101A000097F90895990F0008550FAA0BE0E8FEEF2B
:101A100016161706E807F907C0F012161306E407B2
:101A2000F50798F0621B730B840B950B39F40A26AB
:101A300061F0232B242B252B21F408950A2609F489
:101A4000A140A6958FEF811D811D08950E94390D3B
:101A50000C94AA0D0E949C0D38F00E94A30D20F05A
:101A6000952311F00C94930D0C94990D11240C9462
:101A7000DE0D0E94BB0D70F3959FC1F3950F50E0F2
:101A8000551F629FF001729FBB27F00DB11D639F30
:101A9000AA27F00DB11DAA1F649F6627B00DA11DD6
:101AA000661F829F2227B00DA11D621F739FB00D7C
:101AB000A11D621F839FA00D611D221F749F3327EC
:101AC000A00D611D231F849F600D211D822F762F85
:101AD0006A2F11249F5750409AF0F1F088234AF062
:101AE000EE0FFF1FBB1F661F771F881F91505040CE
:101AF000A9F79E3F510580F00C94930D0C94DE0DD8
:101B00005F3FE4F3983ED4F3869577956795B79554
:101B1000F795E7959F5FC1F7FE2B880F911D96956E
:101B2000879597F9089597F99F6780E870E060E0DE
:101B300008959FEF80EC089500240A941616170666
:101B400018060906089500240A94121613061406AE
:101B500005060895092E0394000C11F4882352F011
:101B6000BB0F40F4BF2B11F460FF04C06F5F7F4FC9
:101B70008F4F9F4F089557FD9058440F551F59F0B0
:101B80005F3F71F04795880F97FB991F61F09F3F6A
:101B900079F087950895121613061406551FF2CF93
:101BA0004695F1DF08C0161617061806991FF1CFE3
:101BB00086957105610508940895E894BB2766270A
:101BC0007727CB0197F908950E94260EA59F900DC7
:101BD000B49F900DA49F800D911D112408952F9204
:101BE0003F924F925F926F927F928F929F92AF92AD
:101BF000BF92CF92DF92EF92FF920F931F93CF93FA
:101C0000DF93CDB7DEB7CA1BDB0B0FB6F894DEBF90
:101C10000FBECDBF09942A88398848885F846E84B6
:101C20007D848C849B84AA84B984C884DF80EE8000
:101C3000FD800C811B81AA81B981CE0FD11D0FB609
:101C4000F894DEBF0FBECDBFED010895A29FB00195
:101C5000B39FC001A39F700D811D1124911DB29FE0
:101C6000700D811D1124911D08955058BB27AA277E
:101C70000E944D0E0C94AA0D0E949C0D38F00E94FB
:101C8000A30D20F039F49F3F19F426F40C94990D1C
:101C90000EF4E095E7FB0C94930DE92F0E94BB0D29
:101CA00058F3BA17620773078407950720F079F491
:101CB000A6F50C94DD0D0EF4E0950B2EBA2FA02D99
:101CC0000B01B90190010C01CA01A0011124FF27E9
:101CD000591B99F0593F50F4503E68F11A16F040E4
:101CE000A22F232F342F4427585FF3CF46953795E3
:101CF0002795A795F0405395C9F77EF41F16BA0BA8
:101D0000620B730B840BBAF09150A1F0FF0FBB1F55
:101D1000661F771F881FC2F70EC0BA0F621F731F9E
:101D2000841F48F4879577956795B795F7959E3FFB
:101D300008F0B0CF9395880F08F09927EE0F97958C
:101D4000879508950E94C30D88F09F5798F0B92F8A
:101D50009927B751B0F0E1F0660F771F881F991FE0
:101D60001AF0BA95C9F714C0B13091F00E94DD0D98
:101D7000B1E008950C94DD0D672F782F8827B85FA8
:101D800039F0B93FCCF3869577956795B395D9F738
:101D90003EF490958095709561957F4F8F4F9F4F42
:101DA00008950E94020D08F48FEF0895AA1BBB1B33
:101DB00051E107C0AA1FBB1FA617B70710F0A61B4B
:101DC000B70B881F991F5A95A9F780959095BC016C
:101DD000CD010895A1E21A2EAA1BBB1BFD010DC067
:101DE000AA1FBB1FEE1FFF1FA217B307E407F507CB
:101DF00020F0A21BB30BE40BF50B661F771F881FA7
:101E0000991F1A9469F760957095809590959B013C
:101E1000AC01BD01CF010895EE0FFF1F0590F491B5
:101E2000E02D09940F931F93CF93DF938230910598
:101E300010F482E090E0E0913402F091350230E05D
:101E400020E0B0E0A0E0309799F42115310509F4C5
:101E50004AC0281B390B24303105D8F58A819B8173
:101E60006115710589F1FB0193838283FE0111C025
:101E7000408151810281138148175907E0F04817CA
:101E8000590799F4109761F012960C9312971396D4
:101E90001C933296CF01DF91CF911F910F9108953E
:101EA0000093340210933502F4CF2115310551F01F
:101EB0004217530738F0A901DB019A01BD01DF0188
:101EC000F801C1CFEF01F9CF90933502809334022E
:101ED000CDCFFE01E20FF31F819391932250310980
:101EE00039832883D7CF2091320230913302232BBC
:101EF00041F4209102013091030130933302209389
:101F0000320220910001309101012115310541F487
:101F10002DB73EB74091040150910501241B350BAC
:101F2000E0913202F0913302E217F307A0F42E1B86
:101F30003F0B2817390778F0AC014E5F5F4F24172D
:101F4000350748F04E0F5F1F509333024093320223
:101F5000819391939FCFF0E0E0E09CCFCF93DF930C
:101F60000097E9F0FC01329713821282A0913402AB
:101F7000B0913502ED0130E020E01097A1F420810E
:101F80003181820F931F2091320230913302281742
:101F9000390709F061C0F0933302E0933202DF9118
:101FA000CF910895EA01CE17DF07E8F54A815B81FA
:101FB0009E0141155105B1F7E901FB83EA8349917F
:101FC0005991C40FD51FEC17FD0761F480819181F1
:101FD0000296840F951FE9019983888382819381FA
:101FE0009B838A83F0E0E0E012968D919C91139799
:101FF0000097B9F52D913C911197CD010296820F72
:10200000931F20913202309133022817390739F695
:10201000309751F51092350210923402B09333028A
:10202000A0933202BCCFD383C28340815181840FFD
:10203000951FC817D90761F44E5F5F4F888199815A
:10204000480F591F518340838A819B8193838283E8
:102050002115310509F0B0CFF0933502E093340239
:102060009ECFFD01DC01C0CF13821282D7CFB0E03A
:10207000A0E0EDE3F0E10C94F10D8C01009751F438
:10208000CB010E94120F8C01C801CDB7DEB7E0E191
:102090000C940D0EFC01E60FF71F9C012250310934
:1020A000E217F30708F49DC0D901CD91DC91119797
:1020B000C617D70798F0C530D10530F3CE01049785
:1020C0008617970708F3C61BD70B2297C193D193A6
:1020D0006D937C93CF010E94AE0FD6CF5B01AC1AFB
:1020E000BD0A4C018C0E9D1EA0913402B0913502A8
:1020F000512C412CF12CE12C109731F580913202BA
:10210000909133028815990509F05CC04616570670
:1021100008F058C08091000190910101009741F4AE
:102120008DB79EB74091040150910501841B950B1A
:10213000E817F90708F055C0F0933302E093320234
:10214000F90171836083A0CF8D919C9111971296B4
:102150006C90129713967C901397A815B90559F5B2
:102160006C0142E0C40ED11CCA14DB0420F1AC01A6
:102170004A195B09DA011296159780F06282738220
:1021800051834083D9016D937C93E114F10471F084
:10219000D7011396FC93EE93129776CF22968C0F6D
:1021A0009D1FF90191838083F301EFCFF0933502F6
:1021B000E093340269CF4816590608F42C017D01DA
:1021C000D3019ACFCB010E94120F7C01009749F0F6
:1021D000AE01B8010E94F410C8010E94AE0F870141
:1021E00053CF10E000E050CFFB01DC0102C00190B2
:1021F0000D9241505040D8F70895FB01DC018D91BC
:10220000019080190110D9F3990B0895FB01DC01AD
:1022100001900D920020E1F70895FB01DC0141508F
:10222000504048F001900D920020C9F701C01D9266
:1022300041505040E0F70895F894FFCF0000360277
:1022400080000000000064018400B100B10122019F
:10225000C0001401500153015E016E017B01840135
:102260002F2F22225C5C6208660C6E0A720D7409C4
:10227000006E756C6C00747275650066616C7365D8
:10228000000D0A004552524F523A20004F6B004554
:102290006D707479496E70757400496E636F6D70FE
:1022A0006C657465496E70757400496E76616C6911
:1022B00064496E707574004E6F4D656D6F72790074
:0822C000546F6F446565700066
:107800000C94343C0C94513C0C94513C0C94513CE1
:107810000C94513C0C94513C0C94513C0C94513CB4
:107820000C94513C0C94513C0C94513C0C94513CA4
:107830000C94513C0C94513C0C94513C0C94513C94
:107840000C94513C0C94513C0C94513C0C94513C84
:107850000C94513C0C94513C0C94513C0C94513C74
:107860000C94513C0C94513C11241FBECFEFD8E036
:10787000DEBFCDBF11E0A0E0B1E0EAE8FFE702C063
:1078800005900D92A230B107D9F712E0A2E0B1E065
:1078900001C01D92AD30B107E1F70E942D3D0C945F
:1078A000C33F0C94003C982F95959595959595958B
:1078B000905D8F708A307CF0282F295A8091C0000B
:1078C00085FFFCCF9093C6008091C00085FFFCCF60
:1078D0002093C6000895282F205DF0CF982F809127
:1078E000C00085FFFCCF9093C6000895EF92FF92F1
:1078F0000F931F93EE24FF2487018091C00087FD22
:1079000017C00894E11CF11C011D111D81E2E8164D
:1079100081EAF80687E0080780E0180770F3E09135
:107920000401F091050109958091C00087FFE9CF1E
:107930008091C6001F910F91FF90EF9008950E94D3
:10794000763C982F8091C00085FFFCCF9093C600B5
:1079500091362CF490330CF09053892F089597555D
:10796000892F08951F930E949F3C182F0E949F3CCF
:107970001295107F810F1F9108951F93182F882350
:1079800021F00E94763C1150E1F71F9108951F935A
:10799000182F0E94763C803249F0809103018F5F5E
:1079A000809303018530C1F01F9108958091C0003C
:1079B00085FFFCCF84E18093C6008091C00085FFE5
:1079C000FCCF1093C6008091C00085FFFCCF80E102
:1079D0008093C6001F910895E0910401F091050184
:1079E00009951F9108950E94763C803241F0809164
:1079F00003018F5F80930301853081F008958091AA
:107A0000C00085FFFCCF84E18093C6008091C00058
:107A100085FFFCCF80E18093C6000895E0910401CA
:107A2000F09105010995089548EC50E08823A1F0F4
:107A30002D9A28EE33E0FA013197F1F721503040CA
:107A4000D1F72D9828EE33E0FA013197F1F7215064
:107A50003040D1F7815061F708953F924F925F9285
:107A60006F927F928F929F92AF92BF92CF92DF924E
:107A7000EF92FF920F931F93CF93DF93000082E06A
:107A80008093C00080E18093C4001092C50088E11B
:107A90008093C10086E08093C2005098589A259A3E
:107AA00081E00E94143D24E1F22E9EE1E92E85E959
:107AB000D82E0FE0C02E10E1B12EAA24A394B1E479
:107AC0009B2EA6E58A2EF2E57F2EE0E26E2E79E46B
:107AD000572E63E5462E50E5352E0E94763C8033C6
:107AE000B1F18133B9F1803409F46FC0813409F404
:107AF00076C0823409F485C0853409F488C08035A5
:107B000031F1823521F1813511F1853509F485C0D6
:107B1000863509F48DC0843609F496C0843709F49B
:107B200003C1853709F472C1863709F466C08091B4
:107B300003018F5F80930301853079F6E0910401A2
:107B4000F091050109950E94763C803351F60E9420
:107B5000F33CC3CF0E94763C803249F78091C0004D
:107B600085FFFCCFF092C6008091C00085FFFCCF5E
:107B70009092C6008091C00085FFFCCF8092C60025
:107B80008091C00085FFFCCF7092C6008091C0003C
:107B900085FFFCCF6092C6008091C00085FFFCCFBE
:107BA0005092C6008091C00085FFFCCF4092C60075
:107BB0008091C00085FFFCCF3092C6008091C0004C
:107BC00085FFFCCFB092C60088CF0E94763C8638F5
:107BD00008F4BDCF0E94763C0E94F33C7ECF0E9409
:107BE000763C803809F49CC0813809F40BC1823896
:107BF00009F430C1883909F48FC080E00E94C73C85
:107C00006CCF84E10E94BD3C0E94F33C66CF85E0CE
:107C10000E94BD3C0E94F33C60CF0E94763C809362
:107C200006010E94763C809307010E94F33C55CFE9
:107C30000E94763C803309F411C183E00E94BD3C70
:107C400080E00E94C73C49CF0E94763C80930902A5
:107C50000E94763C8093080280910C028E7F809374
:107C60000C020E94763C853409F409C18091080217
:107C700090910902892B89F000E010E00E94763C87
:107C8000F801E85FFE4F80830F5F1F4F809108026D
:107C9000909109020817190788F30E94763C8032F8
:107CA00009F045CF80910C0280FFF5C0609106017C
:107CB00070910701660F771F7093070160930601AB
:107CC000A0910802B09109021097C9F0E8E0F1E034
:107CD0009B01AD014E0F5F1FF999FECF32BD21BD53
:107CE000819180BDFA9AF99A2F5F3F4FE417F5070B
:107CF00099F76A0F7B1F70930701609306018091CB
:107D0000C00085FFFCCFF092C6008091C00085FFC7
:107D1000FCCFB092C600E1CE83E00E94C73CDDCE2E
:107D200082E00E94C73CD9CE0E94763C8093090233
:107D30000E94763C80930802809106019091070191
:107D4000880F991F90930701809306010E94763C4B
:107D5000853409F49AC080910C028E7F80930C02C6
:107D60000E94763C803209F0B8CE8091C00085FF39
:107D7000FCCFF092C600A0910802B09109021097C2
:107D8000C1F180910C02082F0170182F1695117007
:107D9000E0910601F0910701AF014F5F5F4FBA011B
:107DA00020E030E00023B1F4112339F49491809164
:107DB000C00085FFFCCF9093C6002F5F3F4FCB01E3
:107DC0000196FA012A173B0780F4BC014F5F5F4F11
:107DD000002351F3F999FECFF2BDE1BDF89A90B5B9
:107DE0008091C00085FFFCCFE6CF709307016093C0
:107DF00006018091C00085FDE5CE8091C00085FF21
:107E0000F8CFE0CE81E00E94C73C67CE0E94763C6E
:107E1000803209F08CCE8091C00085FFFCCFF092BB
:107E2000C6008091C00085FFFCCFE092C600809123
:107E3000C00085FFFCCFD092C6008091C00085FFB6
:107E4000FCCFC092C6008091C00085FFFCCFB092ED
:107E5000C60043CE80E10E94C73C3FCE0E94763CE4
:107E60000E94763C182F0E94763C112309F483C0AF
:107E7000113009F484C08FE00E94C73C2ECE80915F
:107E80000C02816080930C02F1CE80910C02816023
:107E900080930C0265CF809107018823880F880B9F
:107EA0008A2180930B028091060190910701880F2F
:107EB000991F90930701809306018091080280FF2B
:107EC00009C08091080290910902019690930902DD
:107ED00080930802F894F999FECF1127E0910601EA
:107EE000F0910701C8E0D1E0809108029091090269
:107EF000103091F40091570001700130D9F303E084
:107F000000935700E8950091570001700130D9F3B4
:107F100001E100935700E8950990199000915700EE
:107F200001700130D9F301E000935700E8951395F3
:107F3000103498F011270091570001700130D9F3E7
:107F400005E000935700E89500915700017001305B
:107F5000D9F301E100935700E8953296029709F0B2
:107F6000C7CF103011F00296E5CF11248091C000E8
:107F700085FFC5CEC8CE8EE10E94C73CAECD85E957
:0C7F80000E94C73CAACDF894FFCF8000FF
:00000001FF
