:100000000C9459000C9481000C9481000C94810094
:100010000C9481000C9481000C9481000C9481005C
:100020000C9481000C9481000C9481000C9481004C
:100030000C9481000C9481000C9481000C9481003C
:100040000C94050C0C9481000C94750C0C944F0CC2
:100050000C9481000C9481000C9481000C9481001C
:100060000C9481000C948100CDCCCC3D0AD7233C6C
:1000700017B7D13877CC2B329595E6241FB14F0AAC
:100080000000803FCDCCCC3D6F12833A95BFD63374
:100090007D1D9026B3CE010C000020410000C84217
:1000A00000401C4620BCBE4CCA1B0E5AAEC59D74F7
:1000B000DB0E11241FBECFEFD8E0DEBFCDBF22E0A4
:1000C000A6EFB1E001C01D92A63AB207E1F711E038
:1000D000A0E0B1E0EAEDF6E202C005900D92A63F85
:1000E000B107D9F710E0C9E5D0E004C02197FE01BF
:1000F0000E945B11C835D107C9F70E94A70C0C9468
:100100006B130C9400000895AF92BF92CF92DF92D0
:10011000EF92FF920F931F93CF93DF936C017B01BC
:100120008B01040F151FEB015E01AE18BF08C0174D
:10013000D10759F06991D601ED91FC910190F081C0
:10014000E02DC6010995892B79F7C501DF91CF9183
:100150001F910F91FF90EF90DF90CF90BF90AF90E5
:100160000895FC01538D448D252F30E0842F90E0BD
:10017000821B930B541710F0CF96089501970895A2
:10018000FC01918D828D981761F0A28DAE0FBF2F6B
:10019000B11D5D968C91928D9F5F9F73928F90E0C1
:1001A00008958FEF9FEF08952FB7F8948091010283
:1001B00090910202A0910302B09104022FBF80939C
:1001C0000D0290930E02A0930F02B093100285E0EF
:1001D00092E00E94C00097FF26C02FB7F89480914C
:1001E000010290910202A0910302B09104022FBF7C
:1001F00040910D0250910E0260910F027091100219
:10020000841B950BA60BB70B4091090250910A0273
:1002100060910B0270910C0284179507A607B7072F
:10022000B0F28FEF9FEF0895FC01918D828D9817AA
:1002300031F0828DE80FF11D858D90E008958FEFEC
:100240009FEF0895FC01918D228D892F90E0805CB5
:100250009F4F821B91098F739927089585E092E043
:100260000E94220121E0892B09F420E0822F0895C9
:1002700080E090E0892B29F00E942E0181110C94DE
:1002800000000895FC01A48DA80FB92FB11DA35A39
:10029000BF4F2C91848D90E001968F739927848FA6
:1002A000A689B7892C93A089B1898C9183708064C9
:1002B0008C93938D848D981306C00288F389E02D6A
:1002C00080818F7D80830895EF92FF920F931F931B
:1002D000CF93DF93EC0181E0888F9B8D8C8D9813F9
:1002E0001AC0E889F989808185FF15C09FB7F89405
:1002F000EE89FF896083E889F98980818370806451
:1003000080839FBF81E090E0DF91CF911F910F919B
:10031000FF90EF900895F62E0B8D10E00F5F1F4FAA
:100320000F731127E02E8C8D8E110CC00FB607FCB9
:10033000FACFE889F989808185FFF5CFCE010E9447
:100340004201F1CFEB8DEC0FFD2FF11DE35AFF4F72
:10035000F0829FB7F8940B8FEA89FB8980818062D5
:10036000CFCFCF93DF93EC01888D8823B9F0AA8992
:10037000BB89E889F9898C9185FD03C0808186FD60
:100380000DC00FB607FCF7CF8C9185FFF2CF8081AF
:1003900085FFEDCFCE010E944201E9CFDF91CF91E1
:1003A0000895CF93DF93EC0188819981DC01ED9171
:1003B000FC910190F081E02D09952A813B81820F0B
:1003C000931F9B838A83DF91CF910895CF93DF930F
:1003D000EC0188819981DC01ED91FC910280F3812F
:1003E000E02D09952A813B81820F931F9B838A838D
:1003F000DF91CF9108958F929F92AF92BF92CF924B
:10040000DF92EF92FF920F931F93CF93DF93CDB7BD
:10041000DEB766970FB6F894DEBF0FBECDBF6C0196
:100420008E01095E1F4F78018AE0882E912CA12C45
:10043000B12CCB01BA01A50194010E943911942F6E
:10044000852F605DF80162938F01A901692F782FD4
:10045000411551056105710561F7A7014E1B5F0B41
:10046000BF01C6010E94E60166960FB6F894DEBF92
:100470000FBECDBFDF91CF911F910F91FF90EF90F5
:10048000DF90CF90BF90AF909F908F900895EF92A4
:10049000FF920F931F93CF93DF93EC017B0162E2F6
:1004A0000E94D1018701F80161918F01662391F0CB
:1004B000E4E2F1E0F280FF2049F032968181681396
:1004C000F9CF6CE5CE010E94D1016F2DCE010E94C3
:1004D000D101E9CF62E2CE01DF91CF911F910F915F
:1004E000FF90EF900C94D10180339CF08A3324F07C
:1004F0008F3524F08B3724F481E0089581344CF05B
:100500008B35D4F393ED980F81E09230B0F380E017
:1005100008958B32B9F7F0CFFC01848581110AC0B0
:10052000A185B285CD010196928781878C918387C1
:1005300081E08487838508951F93CF93DF93EC0137
:10054000162F0E948C02811306C01C8681E0DF9169
:10055000CF911F91089580E0FACFCF93DF93EC0104
:10056000CE010E948C028B303CF489304CF48823FD
:1005700049F081E0888710C08D3011F08032C9F7D2
:100580001C86EECF888581110AC081E090E0C15BB6
:10059000DF4F9983888380E0DF91CF91089582E0D7
:1005A00090E0F5CFFC01828193810097C1F0248116
:1005B0003581468157812417350740F01382128216
:1005C0000190F081E02D81E080870895A9014F5FBF
:1005D0005F4F55834483820F931FFC01608308950E
:1005E0009F92AF92BF92CF92DF92EF92FF920F93C2
:1005F0001F93CF93DF9300D000D01F92CDB7DEB70B
:100600008C010E948C02D82EF8011486F12CE12C6A
:1006100060EFC62EC8010E948C02F8011486D8161D
:1006200009F4BCC0811119C0F801E15BFF4F82E001
:1006300090E09183808380E00F900F900F900F9057
:100640000F90DF91CF911F910F91FF90EF90DF906E
:10065000CF90BF90AF909F9008958C3509F09CC0CB
:10066000C8010E948C028823F9F2E4E2F1E08537A8
:1006700009F086C0F801148654E0952EB12CA12C07
:10068000C8010E948C02882379F281344CF4805393
:10069000803148F0F801E15BFF4F83E090E0C9CF83
:1006A0008F7D8753F5CF44E0AA0CBB1C4A95E1F738
:1006B000A82AF80114869A949110E2CFC501985D9A
:1006C0008115944020F4750123E0F222A3CFC501E7
:1006D0009C5D81159440A8F4F3E0BF22B701762F0A
:1006E0006627770F770F6A297B2990E080E00196D3
:1006F000603871058105910540F4C8010E94D2025D
:1007000089CFB50190E080E0F3CF1982262F2F73B7
:1007100020682A8326E096958795779567952A9590
:10072000D1F76032710580F4606C6B835E0124E068
:10073000A20EB11CF50162915F01662309F46ACF34
:10074000C8010E94D202F6CF262F2F7320682B8378
:1007500086E0769567958A95E1F76031710538F402
:10076000606E6C835E0185E0A80EB11CE3CF60680B
:100770006C83CD825E01E6E0AE0EB11CDBCF32961B
:100780009081992309F486CF8913F9CF8181882339
:1007900009F480CFF8011486682FAFCF60E0C8015C
:1007A0000E94D202F80182819381892B29F4E15BB6
:1007B000FF4F84E090E03DCF81E03ECF4F925F92CB
:1007C0006F927F928F929F92AF92BF92CF92DF9261
:1007D000EF92FF920F931F93CF93DF93EC018B0166
:1007E00088818B32C9F18D32C1F52196FF24F394B3
:1007F000888190ED980F9A3018F08E3209F04DC133
:1008000060E070E0CB01FE012191A0ED8A2E820E06
:1008100039E0381520F16A3949E97407840749E15C
:10082000940738F5AAE0B0E09B01AC010E942C10BF
:10083000912CB12CA12C240135014094509460944A
:100840007094461657066806790698F0680D791D6B
:100850008A1D9B1DEF01D7CF2196F12CC9CF211105
:1008600008C0FF20F1F161307105810550E895075E
:10087000A0F0E12CEAE08E2E912CA12CB12C611578
:100880007105F0E88F079105C0F1A50194010E9460
:100890003911CA01B901E394F2CFF801248120781B
:1008A0002A6024839B01AC0188279927DC01821BE5
:1008B000930BA40BB50B80839183A283B3838F2DFD
:1008C000DF91CF911F910F91FF90EF90DF90CF902C
:1008D000BF90AF909F908F907F906F905F904F9060
:1008E0000895F8012481207828602483608371832F
:1008F00082839383FF24F394E2CFFE01299130EDAC
:10090000320F3A3010F4E394F8CF2E32F1F4EF01C5
:100910002196FE012196208150EDD52ED20E29E0A0
:100920002D1598F06C3C3CEC73073CE08307910577
:1009300080F7AAE0B0E09B01AC010E942C106D0D85
:10094000711D811D911DEA94E4CF20812F7DD0E09F
:10095000C0E0253409F05DC021812D32D9F53296F1
:10096000CC24C394DF01D0E0C0E02E2D0E2C000C6F
:10097000330B4AE0B42EFD01DD9040ED4D0D4A30C1
:1009800008F042C0BC9EA001BD9E500D1124CD2D8B
:10099000DD0CDD0BE097C40FD51FAE01420F531FD6
:1009A0004732510544F3F8018481CC20D1F040E076
:1009B00050E060E070E8F11003C040E050E0BA01A0
:1009C00080788C60F80184834083518362837383D1
:1009D000FC2C75CF2B3219F03196C12CC3CF329637
:1009E000FCCF40E050E060E87FEFF11004C040E051
:1009F00050E060E87FE780788C60F8018483408372
:100A000051836283738376CFCC2019F0D195C19541
:100A1000D1092081211141C0CE0DD11DE7FCDA950D
:100A20000E940D0F1C161D0604F5E12CC0FF0CC022
:100A300024E0E29EF0011124E856FF4F2591359104
:100A4000459154910E946E0FD595C795E3942097D8
:100A500069F7F1109058F801248120782C602483E4
:100A6000608371838283938345CFD195C195D109EA
:100A7000E12C209771F3C0FF0CC044E0E49EF0012C
:100A80001124E859FF4F25913591459154910E94C9
:100A90006E0FD595C795E394ECCFF12C10CFCF9284
:100AA000DF92EF92FF92CF93DF9300D000D01F929E
:100AB000CDB7DEB7FC0184818F778630B9F028F49A
:100AC000843088F590E080E013C08A30E9F08C3003
:100AD000B9F18830B9F780819181A281B381811504
:100AE00020E89207A105B10568F702C0808190E077
:100AF0000F900F900F900F900F90DF91CF91FF907C
:100B0000EF90DF90CF90089580819181A281B38191
:100B1000AC01BD0150586F4F7F4F411551056140E9
:100B2000710580F6E5CF808191811D82BE016F5FE6
:100B30007F4F0E94DE03CE0101960E944F05D8CF61
:100B4000C080D180E280F38020E030E040E057ECCC
:100B5000C701B6010E94201187FDB4CF20E03EEF0F
:100B60004FEF56E4C701B6010E94080F18160CF4A7
:100B7000A9CFC701B6010E94EA10CB01B9CFCF932C
:100B8000DF93DC01EB01EC81FD818A819B8108967A
:100B9000E817F90740F481E08887F0E0E0E0CF0152
:100BA000DF91CF9108953897FD83EC833097B9F3A7
:100BB0001296CD91DC911397209791F0CF018C1B69
:100BC0009D0B23E0959587952A95E1F78D831396E4
:100BD000FC93EE9312971582148217821682DFCF50
:100BE0001196FC93EE93F3CFFC011182108281E009
:100BF000828314821382168215824115510591F069
:100C0000DA0116962D913C91179714968C91809548
:100C1000881F8827881F31832083828354834383DE
:100C2000768365830895FC0101900020E9F73197F0
:100C3000AF01481B590BBC0185E092E00C94840085
:100C4000CF93DF93D0E0C0E0009719F00E94130625
:100C5000EC0185E391E00E9413068C0F9D1FDF914C
:100C6000CF910895CF93DF93FC014481558160813A
:100C7000718185E092E00E948400EC0185E391E0BF
:100C80000E9413068C0F9D1FDF91CF910895FB01E9
:100C900001900020E9F73197AF01461B570B0C94E8
:100CA000E6012F923F924F925F926F927F928F92C6
:100CB0009F92AF92BF92CF92DF92EF92FF920F93EB
:100CC0001F93CF93DF93CDB7DEB76C970FB6F89431
:100CD000DEBF0FBECDBF8C011B01DC0114968C91D1
:100CE00014978F77863009F481C278F48230B0F09F
:100CF000843008F059C212964D915C9113976D9112
:100D00007C91C1010E94E60106C28C30B1F160F411
:100D1000883009F466C28A3009F44CC268E371E095
:100D2000C1010E944706EEC1803209F410C280342E
:100D3000A9F76BE5C1010E94D101F8010081118181
:100D40000115110509F4E3C1B101C8010E94510662
:100D5000D80115968C91882309F4D9C1B8E08B028B
:100D6000C0011124080F191F0115110509F4CFC185
:100D70006CE2C1010E94D101E3CFF801C080D180B3
:100D8000E280F380A7019601C701B6010E94080F17
:100D90008111C4CF20E030E0A901C701B6010E9453
:100DA000080F882379F0A7019601C701B6010E94B8
:100DB0007E109B01AC01C701B6010E94080F882379
:100DC00009F4ACCF20E030E0A901C701B6010E94D0
:100DD000080F87FF08C06DE2C1010E94D101F7FA38
:100DE000F094F7F8F09420E836E948E15BE4C701B5
:100DF000B6010E94201187FD81C074E1A72EB12C9D
:100E000000E210E0188E1F8AF501E856FF4F259189
:100E1000359145915491C701B6010E94201187FD7B
:100E200013C0F501E859FF4F259135914591549133
:100E3000C701B6010E946E0F6B017C012F89388DAE
:100E4000200F311F388F2F8B1595079534E0A31A8B
:100E5000B1088CEFA8168FEFB806B1F655245A9456
:100E600020E030E0A901C701B6010E942011181648
:100E70000CF04BC02CEA35EC47E257E3C701B60152
:100E80000E94080F18160CF440C0A52DB4E0AB0268
:100E9000C0011124912C812CFC01E058FF4F3F012F
:100EA0009C0128563F4F59013FEF531671F1F30152
:100EB000E80DF91D6591759185919491A7019601B1
:100EC0000E94201118169CF4F501E80DF91D2591DA
:100ED000359145915491C701B6010E946E0F6B0187
:100EE0007C018F89988D801B910B988F8F8B159526
:100EF00007955A9494E0891A9108D6CF00E210E041
:100F000055E0552E188E1F8AABCFC701B6010E943F
:100F1000F1104B015C012B013C0106E080E492E4FE
:100F2000AFE0B0E0898F9A8FAB8FBC8F102F01504C
:100F30009AE04916510461047104C8F0698D7A8DF4
:100F40008B8D9C8D2AE030E040E050E00E9439110A
:100F5000298F3A8F4B8F5C8FC301B2012AE030E0BA
:100F600040E050E00E94391129013A01DFCFC5016C
:100F7000B4010E940D0F9B01AC01C701B6010E9494
:100F80007D106B017C01698D7A8D8B8D9C8D0E940B
:100F90000D0F9B01AC01C701B6010E946E0F2B0122
:100FA0003C010E94F1106B017C010E940D0F9B011E
:100FB000AC01C301B2010E947D109B01AC010E94F3
:100FC0007E100E94F110C60ED71EE81EF91E898DF4
:100FD0009A8DAB8DBC8DC816D906EA06FB06D8F0F3
:100FE0009FEF891A990AA90AB90AAF89B88DAB2B64
:100FF00039F1BAE08B169104A104B10408F1EF892C
:10100000F88D3196F88FEF8BC12CD12C7601812C85
:10101000912C540183942AE0422E512C612C712C86
:10102000C701B601A30192010E943911672B682BF9
:10103000692B51F4111644F469017A011150F0CF73
:10104000C12CD12C7601E7CFB501A401C1010E94CA
:10105000FB01112371F14E01F1E18F0E911C012F63
:1010600054019AE0492E512C612C712C015068F0EA
:10107000C701B601A30192010E943911605DD4013C
:101080006E934D0169017A01F1CF812F90E0BC018F
:1010900060957095F501E81BF90B31978EE280831E
:1010A00044275527461B570B6A0D7B1DC1010E9423
:1010B000E601EF89F88DEF2B29F165E6C1010E9469
:1010C000D1010F89188D17FF07C06DE2C1010E9481
:1010D000D101119501951109FE0177969F018AE0D2
:1010E000E82EF12CC801B7010E942511805D829382
:1010F0008B01672BB9F7A9014E1B5F0BBF01C10123
:101100000E94E601D10112968D919C9107C06DE578
:10111000C1010E94D101F101828193816C960FB6C9
:10112000F894DEBF0FBECDBFDF91CF911F910F911D
:10113000FF90EF90DF90CF90BF90AF909F908F90F7
:101140007F906F905F904F903F902F9008956BE746
:10115000C1010E94D101D8010D911C910115110509
:1011600009F1F80166817781C1010E9447026AE3B3
:10117000C1010E94D101B101C8010E945106D801EC
:1011800015968C91882371F0B8E08B02C001112470
:10119000080F191F0115110529F06CE2C1010E9409
:1011A000D101DCCF6DE7B4CF6D917C91C1010E947C
:1011B0004702B1CFCD90DD90ED90FC90B701A60134
:1011C000F7FE0BC06DE2C1010E94D10144275527F3
:1011D000BA014C195D096E097F09C1010E94FB012A
:1011E0009ACF4D915D916D917C91F7CF8C916DE38C
:1011F00071E0811102C062E471E0C1010E94470602
:101200008ACF8F929F92AF92BF92CF92DF92EF924E
:10121000FF920F931F93CF93DF93CDB7DEB7A197C4
:101220000FB6F894DEBF0FBECDBF6C01990FEE086C
:10123000FF08F7FE47C06DE285E092E00E9464017E
:101240008C0122273327A9012C193D094E095F097A
:1012500019A2CE0181967C019AE0892E912CA12CB5
:10126000B12CCA01B901A50194010E943911605D38
:10127000F70162937F01211531054105510589F779
:1012800090E080E0309719F0CF010E941306080F1C
:10129000191F85E391E00E941306800F911FA1960C
:1012A0000FB6F894DEBF0FBECDBFDF91CF911F9177
:1012B0000F91FF90EF90DF90CF90BF90AF909F90F5
:1012C0008F900895A701960119A28E010F5D1F4FFF
:1012D0008AE0C82ED12CE12CF12CCA01B901A7015A
:1012E00096010E943911605DF80162938F0121150A
:1012F00031054105510589F7309729F0CF010E944A
:1013000013068C01C6CF10E000E0C3CF0F931F93EC
:10131000CF93DF93EC0188819981009759F02A815E
:101320003B812617370730F081E0DF91CF911F9185
:101330000F9108958B016F5F7F4F0E948612009777
:1013400059F0998388831B830A832C813D81232B49
:1013500059F7FC011082E8CF80E0E7CFCF92DF920F
:10136000EF92FF920F931F93CF93DF936C01FC01D9
:10137000E080F180F70102811381C081D181C01723
:10138000D10778F40115110541F0209731F0BE0125
:10139000C8010E944C13892B69F089918111FDCFFE
:1013A000EECFF60184819581800F911FF701938321
:1013B0008283E801CE01DF91CF911F910F91FF90C1
:1013C000EF90DF90CF9008950F931F93CF93DF930B
:1013D0008B01EC012097E1F06E817F81601771072E
:1013E000B9F00115110541F06115710529F0C80129
:1013F0000E944C13892B61F08D81882339F028E0FD
:101400008202C0011124C80FD91FE4CFD0E0C0E090
:10141000CE01DF91CF911F910F9108959F92AF92CE
:10142000BF92CF92DF92EF92FF920F931F93CF93D1
:10143000DF93EC018B01E42E0E94AD02F82E8111A6
:101440000EC0F12C8F2DDF91CF911F910F91FF9046
:10145000EF90DF90CF90BF90AF909F900895CE0116
:101460000E948C02873209F415C114F5823209F406
:1014700011C1CE010E948C02B82E6E01FFE0CF0E8A
:10148000D11CE12C9C2CAD2C8B2D0E947402882346
:1014900009F422C18FE3E81609F41EC11C86E39407
:1014A000F601B1926F01CE010E948C02B82EECCFF2
:1014B0008B3509F455C08B37E1F6F80184818078CB
:1014C000806284831182108213821282EE2009F4DA
:1014D00052C01C86CE010E94AD02882309F4B1CF10
:1014E0006DE7CE010E949C028111ACCFEA94E881A5
:1014F000F981828193819B838A8384819581228172
:101500003381821B930B9F838E831D821C82CE01AD
:101510000E948C02873209F46EC0823209F46BC0DB
:10152000CE010E948C02D82E0E947402882309F4F6
:101530005DC01C866D2DCE010E94D202CE010E949C
:101540008C02D82E0E9474028111F3CF60E0CE018C
:101550000E94D2028A819B81892B09F052C027C048
:10156000F8018481807880648483118210821382E0
:101570001282E11007C0C15BDF4F85E090E09983E4
:1015800088835FCF1C86CE010E94AD02882309F4B8
:1015900058CF6DE5CE010E949C02811153CFEA9491
:1015A0006D857E85C8010E94BF05009729F4C15B47
:1015B000DF4F84E090E0E3CF4E2DBC01CE010E94CE
:1015C0000E0A882309F43DCFCE010E94AD02882384
:1015D00009F437CF6DE5CE010E949C02811132CF14
:1015E0006CE2CE010E949C028111DACFC15BDF4F19
:1015F00083E090E0C4CFCE010E94F002882309F47A
:1016000020CFCE010E94AD02882309F41ACF6AE3ED
:10161000CE010E949C02882349F36A817B81F801F4
:10162000808191810E94E409BC01892B99F4CE014B
:101630000E94AE096C016D857E85C8010E94BF05C0
:10164000FC01892B09F4B3CF848180688483D7821D
:10165000C682BF014E2DCE010E940E0A882309F4D6
:10166000F0CECE010E94AD02882309F4EACE6DE7E8
:10167000CE010E949C028111E5CE6CE2CE010E9457
:101680009C02882309F4B2CFCE010E94AD028111E1
:101690002ECFD7CEE881F981828193819B838A8383
:1016A0008481958122813381821B930B9F838E835A
:1016B0001D821C82CE010E94F002F82E882309F4BC
:1016C000C0CECE010E94AE09F801248120782560A9
:1016D000248391838083B6CEFE01EE0DF11D178623
:1016E0008F85843781F4F8018481807886608483D3
:1016F00081E08083F4E0EF1609F4A4CEC15BDF4FF4
:1017000082E090E03CCF863641F4F8018481807815
:10171000866084831082F5E0EECF8E3621F484E07B
:10172000E812ECCF8FCEB801892D9A2D0E94DE03EE
:10173000882309F45BCF86CE0F931F93CF93DF935B
:10174000CDB7DEB7C156D1090FB6F894DEBF0FBED4
:10175000CDBF8C01FC01808191819383828386813E
:10176000978195838483108615866C961FAF0EAF84
:101770006C9788E0FE01E65AFF4FDE01AE5ABF4F7C
:1017800001900D928A95E1F788E0FE01EE5AFF4F35
:10179000DE01119601900D928A95E1F719867B87FB
:1017A0006A871D861F870E8762961FAE1EAE6297E0
:1017B000B801675F7F4FCE0101960E940E0A6296C4
:1017C0008EAD9FAD6297009749F42C85222331F0AE
:1017D000F801258523FF02C083E090E0CF59DF4F59
:1017E0000FB6F894DEBF0FBECDBFDF91CF911F9132
:1017F0000F910895FC01248125FF04C0808191810F
:101800000C94E40990E080E008951F920F920FB6C7
:101810000F9211242F933F938F939F93AF93BF9376
:101820008091010290910202A0910302B091040202
:101830003091000223E0230F2D3758F50196A11DAA
:10184000B11D209300028093010290930202A093A5
:101850000302B09304028091FC019091FD01A091DC
:10186000FE01B091FF010196A11DB11D8093FC0105
:101870009093FD01A093FE01B093FF01BF91AF9142
:101880009F918F913F912F910F900FBE0F901F90BE
:10189000189526E8230F0296A11DB11DD2CF1F92E5
:1018A0000F920FB60F9211242F933F934F935F9394
:1018B0006F937F938F939F93AF93BF93EF93FF9318
:1018C00085E092E00E944201FF91EF91BF91AF91BC
:1018D0009F918F917F916F915F914F913F912F9148
:1018E0000F900FBE0F901F9018951F920F920FB67A
:1018F0000F9211242F938F939F93EF93FF93E09177
:101900001502F09116028081E0911B02F0911C02F9
:1019100082FD1BC0908180911E028F5F8F7320918A
:101920001F02821741F0E0911E02F0E0EB5FFD4FD5
:10193000958F80931E02FF91EF919F918F912F9130
:101940000F900FBE0F901F9018958081F4CFCF930A
:10195000DF93CDB7DEB7A2970FB6F894DEBF0FBE08
:10196000CDBF789484B5826084BD84B5816084BD28
:1019700085B5826085BD85B5816085BD80916E002D
:10198000816080936E00109281008091810082605E
:10199000809381008091810081608093810080919B
:1019A00080008160809380008091B100846080938A
:1019B000B1008091B00081608093B00080917A0086
:1019C000846080937A0080917A00826080937A00AC
:1019D00080917A00816080937A0080917A0080689B
:1019E00080937A001092C100E0911502F0911602E6
:1019F00082E08083E0911102F09112021082E09166
:101A00001302F09114028FEC808310921D02E0917A
:101A10001902F0911A0286E08083E0911702F0919A
:101A20001802808180618083E0911702F091180292
:101A3000808188608083E0911702F0911802808194
:101A400080688083E0911702F091180280818F7D79
:101A5000808385E092E00E942201892B09F49EC1D7
:101A60001E8E1D8E18A21F8E1AA219A270E060E0B1
:101A7000CE014D960E9486092D8D3E8D81112BC081
:101A80002115310519F0C9010E94FD111E8E1D8E10
:101A90001AA219A218A21F8E0E94D40097FD23C07B
:101AA00089831A8209A11AA10F5F1F4FB801CE01C5
:101AB0004D960E948609882379F32D8D3E8D89A14C
:101AC0009AA1BE016F5F7F4F820F931F0E94551333
:101AD0001AA309A3E1CF1AA219A264E371E0C90114
:101AE0000E945513D9CF88E491E00E942006CE01D0
:101AF0004D960E943206188E1F8A1A8E198E1C8EE1
:101B00001B8E0D8D1E8D01151105B9F0E9A0FAA0EF
:101B1000B701CE0147960E9486092F89388D811121
:101B200082C02115310519F0C9010E94FD11188EDE
:101B30001F8A1C8E1B8E1A8E198ECDB6DEB680E5DE
:101B400091E00E942006CE0147960E9432060B8D3E
:101B50001C8D8DB79EB7801B910B0FB6F8949EBF5E
:101B60000FBE8DBFEDB7FEB731967F010115110590
:101B700061F0015011096F89788DA801CF010E9491
:101B80005C13F701E00FF11F108287E591E00E94DE
:101B90002006CE0147960E94320680E094E00E9423
:101BA00061119C013C5F009711F430E020E09B83C1
:101BB0008A839D838C833F832E83398728871A8667
:101BC0001F864AE0B701CE0102960E949C0B8C0151
:101BD000009781F10397029768F58DE591E00E94E7
:101BE0001306000F111FF801E85EFE4F80819181FE
:101BF0000E9420068A819B81009711F00E94FD11AE
:101C00000FB6F894DEBE0FBECDBE8F89988D0097BB
:101C100011F00E94FD118D8D9E8D009709F419CF52
:101C20000E94FD1116CFFC8EEB8EB801C9010E94F7
:101C3000551383CF4AE0B701CE0102960E949C0B58
:101C40008F858E01055F1F4F85FD02C010E000E00B
:101C500085E691E00E94200685E092E0998B888BD2
:101C60001B8A1A8ABE01605F7F4FCE010B960E94CD
:101C7000510685E391E00E94130663E771E0CE010F
:101C80000B960E94FA0B892B01F101151105E9F061
:101C9000F8010081118101151105B9F0A801BE01FB
:101CA0006E5F7F4FCE0140960E94F4058BE791E076
:101CB0000E941306F8018581882339F0F8E08F022D
:101CC000C0011124080F191FE6CF6AE871E0CE01A8
:101CD0000B960E94FA0B892B69F16AE871E0CE013C
:101CE0000B960E94FA0B009709F043C010E000E049
:101CF0001093FB010093FA016AE871E0CE010B96A4
:101D00000E94FA0B009709F03FC090E080E09093AA
:101D1000F9018093F801089F9001099F300D189FE9
:101D2000300D11243093F7012093F60187E991E0FB
:101D30000E94200683EA91E00E9413068091F6013A
:101D40009091F7010E9401098BEA91E00E9413062D
:101D50008091FA019091FB010E94010982EB91E0D0
:101D60000E9413068091F8019091F9010E940109E7
:101D700041CF6FE871E00E94FA0B009709F4B6CFEB
:101D80000E944F058C01B4CF63E971E00E94FA0B09
:101D9000009709F4BACF0E944F05B9CF80E090E0D8
:101DA000892B09F456CE0E942E01882309F451CEC6
:101DB0000E9400004ECEE5E0F2E01382128288EE2F
:101DC00093E0A0E0B0E084839583A683B7838AE0A4
:101DD00091E09183808385EC90E09587848784EC03
:101DE00090E09787868780EC90E0918B808B81ECE8
:101DF00090E0938B828B82EC90E0958B848B86ECC9
:101E000090E0978B868B118E128E138E148E089510
:101E10000E944A0F08F481E00895E89409C097FBF6
:101E20003EF490958095709561957F4F8F4F9F4FB1
:101E30009923A9F0F92F96E9BB279395F6958795F5
:101E400077956795B795F111F8CFFAF4BB0F11F4B8
:101E500060FF1BC06F5F7F4F8F4F9F4F16C088235F
:101E600011F096E911C0772321F09EE8872F762F95
:101E700005C0662371F096E8862F70E060E02AF0D6
:101E80009A95660F771F881FDAF7880F96958795C2
:101E900097F90895990F0008550FAA0BE0E8FEEF97
:101EA00016161706E807F907C0F012161306E4071E
:101EB000F50798F0621B730B840B950B39F40A2617
:101EC00061F0232B242B252B21F408950A2609F4F5
:101ED000A140A6958FEF811D811D08950E94810F5D
:101EE0000C94F20F0E94E40F38F00E94EB0F20F0E8
:101EF000952311F00C94DB0F0C94E10F11240C943A
:101F000026100E94031070F3959FC1F3950F50E0C7
:101F1000551F629FF001729FBB27F00DB11D639F9B
:101F2000AA27F00DB11DAA1F649F6627B00DA11D41
:101F3000661F829F2227B00DA11D621F739FB00DE7
:101F4000A11D621F839FA00D611D221F749F332757
:101F5000A00D611D231F849F600D211D822F762FF0
:101F60006A2F11249F5750409AF0F1F088234AF0CD
:101F7000EE0FFF1FBB1F661F771F881F9150504039
:101F8000A9F79E3F510580F00C94DB0F0C942610AE
:101F90005F3FE4F3983ED4F3869577956795B795C0
:101FA000F795E7959F5FC1F7FE2B880F911D9695DA
:101FB000879597F9089597F99F6780E870E060E04A
:101FC00008959FEF80EC089500240A9416161706D2
:101FD00018060906089500240A941216130614061A
:101FE00005060895092E0394000C11F4882352F07D
:101FF000BB0F40F4BF2B11F460FF04C06F5F7F4F35
:102000008F4F9F4F089557FD9058440F551F59F01B
:102010005F3F71F04795880F97FB991F61F09F3FD5
:1020200079F087950895121613061406551FF2CFFE
:102030004695F1DF08C0161617061806991FF1CF4E
:1020400086957105610508940895E894BB27662775
:102050007727CB0197F908950E946E10A59F900DE8
:10206000B49F900DA49F800D911D112408952F926F
:102070003F924F925F926F927F928F929F92AF9218
:10208000BF92CF92DF92EF92FF920F931F93CF9365
:10209000DF93CDB7DEB7CA1BDB0B0FB6F894DEBFFC
:1020A0000FBECDBF09942A88398848885F846E8422
:1020B0007D848C849B84AA84B984C884DF80EE806C
:1020C000FD800C811B81AA81B981CE0FD11D0FB675
:1020D000F894DEBF0FBECDBFED010895A29FB00101
:1020E000B39FC001A39F700D811D1124911DB29F4C
:1020F000700D811D1124911D08955058BB27AA27EA
:102100000E9495100C94F20F0E94E40F38F00E9488
:10211000EB0F20F039F49F3F19F426F40C94E10FF3
:102120000EF4E095E7FB0C94DB0FE92F0E940310FF
:1021300058F3BA17620773078407950720F079F4FC
:10214000A6F50C9425100EF4E0950B2EBA2FA02DB9
:102150000B01B90190010C01CA01A0011124FF2754
:10216000591B99F0593F50F4503E68F11A16F0404F
:10217000A22F232F342F4427585FF3CF469537954E
:102180002795A795F0405395C9F77EF41F16BA0B13
:10219000620B730B840BBAF09150A1F0FF0FBB1FC1
:1021A000661F771F881FC2F70EC0BA0F621F731F0A
:1021B000841F48F4879577956795B795F7959E3F67
:1021C00008F0B0CF9395880F08F09927EE0F9795F8
:1021D000879508950E94F1106894B1110C9426100F
:1021E00008950E940B1088F09F5798F0B92F9927F7
:1021F000B751B0F0E1F0660F771F881F991F1AF0F2
:10220000BA95C9F714C0B13091F00E942510B1E021
:1022100008950C942510672F782F8827B85F39F020
:10222000B93FCCF3869577956795B395D9F73EF48A
:1022300090958095709561957F4F8F4F9F4F089532
:102240000E944A0F08F48FEF0895AA1BBB1B51E1AF
:1022500007C0AA1FBB1FA617B70710F0A61BB70B16
:10226000881F991F5A95A9F780959095BC01CD01BB
:102270000895A1E21A2EAA1BBB1BFD010DC0AA1FC7
:10228000BB1FEE1FFF1FA217B307E407F50720F0DF
:10229000A21BB30BE40BF50B661F771F881F991F5A
:1022A0001A9469F760957095809590959B01AC01A3
:1022B000BD01CF010895EE0FFF1F0590F491E02DB1
:1022C00009940F931F93CF93DF938230910510F4FD
:1022D00082E090E0E091A402F091A50230E020E0DD
:1022E000B0E0A0E0309799F42115310509F44AC017
:1022F000281B390B24303105D8F58A819B81611563
:10230000710589F1FB0193838283FE0111C0408135
:1023100051810281138148175907E0F04817590786
:1023200099F4109761F012960C93129713961C93E0
:102330003296CF01DF91CF911F910F9108950093B5
:10234000A4021093A502F4CF2115310551F04217D4
:10235000530738F0A901DB019A01BD01DF01F80143
:10236000C1CFEF01F9CF9093A5028093A402CDCF06
:10237000FE01E20FF31F81939193225031093983BB
:102380002883D7CF2091A2023091A302232B41F4BE
:1023900020910201309103013093A3022093A20205
:1023A00020910001309101012115310541F42DB733
:1023B0003EB74091040150910501241B350BE0917B
:1023C000A202F091A302E217F307A0F42E1B3F0B29
:1023D0002817390778F0AC014E5F5F4F2417350797
:1023E00048F04E0F5F1F5093A3024093A2028193C7
:1023F00091939FCFF0E0E0E09CCFCF93DF930097E5
:10240000E9F0FC01329713821282A091A402B091EC
:10241000A502ED0130E020E01097A1F42081318188
:10242000820F931F2091A2023091A302281739072F
:1024300009F061C0F093A302E093A202DF91CF9173
:102440000895EA01CE17DF07E8F54A815B819E0116
:1024500041155105B1F7E901FB83EA83499159918F
:10246000C40FD51FEC17FD0761F48081918102969E
:10247000840F951FE90199838883828193819B83CF
:102480008A83F0E0E0E012968D919C91139700977B
:10249000B9F52D913C911197CD010296820F931FB2
:1024A0002091A2023091A3022817390739F63097FC
:1024B00051F51092A5021092A402B093A302A0932A
:1024C000A202BCCFD383C28340815181840F951F68
:1024D000C817D90761F44E5F5F4F88819981480F13
:1024E000591F518340838A819B8193838283211565
:1024F000310509F0B0CFF093A502E093A4029ECF7E
:10250000FD01DC01C0CF13821282D7CFB0E0A0E082
:10251000ECE8F2E10C9439108C01009751F4CB01F6
:102520000E9461118C01C801CDB7DEB7E0E10C94C7
:102530005510FC01E60FF71F9C0122503109E217EC
:10254000F30708F49DC0D901CD91DC911197C6170E
:10255000D70798F0C530D10530F3CE010497861720
:10256000970708F3C61BD70B2297C193D1936D939E
:102570007C93CF010E94FD11D6CF5B01AC1ABD0A3E
:102580004C018C0E9D1EA091A402B091A502512C6D
:10259000412CF12CE12C109731F58091A202909101
:1025A000A3028815990509F05CC04616570608F085
:1025B00058C08091000190910101009741F48DB7BE
:1025C0009EB74091040150910501841B950BE817BB
:1025D000F90708F055C0F093A302E093A202F901B5
:1025E00071836083A0CF8D919C91119712966C900E
:1025F000129713967C901397A815B90559F56C019D
:1026000042E0C40ED11CCA14DB0420F1AC014A190B
:102610005B09DA011296159780F06282738251830A
:102620004083D9016D937C93E114F10471F0D701DB
:102630001396FC93EE93129776CF22968C0F9D1FE4
:10264000F90191838083F301EFCFF093A502E0932A
:10265000A40269CF4816590608F42C017D01D30164
:102660009ACFCB010E9461117C01009749F0AE0125
:10267000B8010E944313C8010E94FD11870153CF86
:1026800010E000E050CFFB01DC0102C001900D9290
:1026900041505040D8F70895FB01DC018D91019025
:1026A00080190110D9F3990B0895FB01DC01019009
:1026B0000D920020E1F70895FB01DC0141505040EC
:1026C00048F001900D920020C9F701C01D924150C1
:0A26D0005040E0F70895F894FFCFA2
:1026DA000000A60280000000000064018400B1002E
:1026EA00B1012201C0001401B901BC01C701D7011F
:1026FA00E401ED012F2F22225C5C6208660C6E0A4F
:10270A00720D7409000D0A006E756C6C0074727596
:10271A00650066616C7365005265616420696E00CC
:10272A00737472696E67006368617273004552520E
:10273A004F523A20005265616420696E206A736FB5
:10274A006E3A00627574746F6E73007061727365AD
:10275A006420627574746F6E2000696E666F007211
:10276A006F7700636F6C00696E666F2070617273B9
:10277A00656400436F756E743A2000526F77733A3E
:10278A002000436F6C733A20004F6B00456D7074E4
:10279A0079496E70757400496E636F6D706C6574FB
:1027AA0065496E70757400496E76616C6964496E2C
:1027BA00707574004E6F4D656D6F727900546F6F4E
:0627CA004465657000008B
:00000001FF
