:100000000C9481000C94A9000C94A9000C94A900F4
:100010000C94A9000C94A9000C94A9000C94A900BC
:100020000C94A9000C94A9000C94A9000C94A900AC
:100030000C94A9000C94A9000C94A9000C94A9009C
:100040000C94960A0C94A9000C94060B0C94E00AEC
:100050000C94A9000C94A9000C94A9000C94A9007C
:100060000C94A9000C94A9000000803FCDCCCC3D9D
:100070006F12833A95BFD6337D1D9026B3CE010C07
:1000800000000000240027002A00000000002500D6
:1000900028002B00040404040404040402020202E5
:1000A000020203030303030301020408102040803B
:1000B00001020408102001020408102000000008BA
:1000C000000201000003040700000000000000001F
:1000D000000020410000C84200401C4620BCBE4C2D
:1000E000CA1B0E5AAEC59D74CDCCCC3D0AD7233C5D
:1000F00017B7D13877CC2B329595E6241FB14F0A2C
:10010000DB0C11241FBECFEFD8E0DEBFCDBF21E056
:10011000AEE4B1E001C01D92A83FB207E1F711E0E3
:10012000A0E0B1E0EEEAF2E202C005900D92AE343A
:10013000B107D9F710E0C1E8D0E004C02197FE0173
:100140000E94540FC038D107C9F70E94380B0C9495
:1001500055110C940000E9ECF0E02491E5EBF0E09F
:100160009491E1EAF0E0E491EE23C9F0222339F022
:10017000233001F1A8F4213019F1223029F1F0E007
:10018000EE0FFF1FE657FF4FA591B4912FB7F894DC
:10019000EC91811126C090959E239C932FBF0895CA
:1001A0002730A9F02830C9F0243049F72091800089
:1001B0002F7D03C0209180002F7720938000DFCF18
:1001C00024B52F7724BDDBCF24B52F7DFBCF209125
:1001D000B0002F772093B000D2CF2091B0002F7DB8
:1001E000F9CF9E2BDACF0895AF92BF92CF92DF92D4
:1001F000EF92FF920F931F93CF93DF936C017B01DC
:100200008B01040F151FEB015E01AE18BF08C0176C
:10021000D10759F06991D601ED91FC910190F081DF
:10022000E02DC6010995892B79F7C501DF91CF91A2
:100230001F910F91FF90EF90DF90CF90BF90AF9004
:100240000895FC01538D448D252F30E0842F90E0DC
:10025000821B930B541710F0CF96089501970895C1
:10026000FC01918D828D981761F0A28DAE0FBF2F8A
:10027000B11D5D968C91928D9F5F9F73928F90E0E0
:1002800008958FEF9FEF08952FB7F8948091530151
:1002900090915401A0915501B09156012FBF8093C8
:1002A0005F0190936001A0936101B093620187E5C3
:1002B00091E00E94300197FF26C02FB7F8948091FB
:1002C000530190915401A0915501B09156012FBF57
:1002D00040915F01509160016091610170916201F4
:1002E000841B950BA60BB70B40915B0150915C01F1
:1002F00060915D0170915E0184179507A607B707AD
:10030000B0F28FEF9FEF0895FC01918D828D9817C9
:1003100031F0828DE80FF11D858D90E008958FEF0B
:100320009FEF0895FC01918D228D892F90E0805CD4
:100330009F4F821B91098F739927089587E591E05C
:100340000E94920121E0892B09F420E0822F089578
:1003500080E090E0892B29F00E949E0181110C948D
:1003600000000895FC01A48DA80FB92FB11DA35A58
:10037000BF4F2C91848D90E001968F739927848FC5
:10038000A689B7892C93A089B1898C9183708064E8
:100390008C93938D848D981306C00288F389E02D89
:1003A00080818F7D80830895EF92FF920F931F933A
:1003B000CF93DF93EC0181E0888F9B8D8C8D981318
:1003C0001AC0E889F989808185FF15C09FB7F89424
:1003D000EE89FF896083E889F98980818370806470
:1003E00080839FBF81E090E0DF91CF911F910F91BB
:1003F000FF90EF900895F62E0B8D10E00F5F1F4FCA
:100400000F731127E02E8C8D8E110CC00FB607FCD8
:10041000FACFE889F989808185FFF5CFCE010E9466
:10042000B201F1CFEB8DEC0FFD2FF11DE35AFF4F21
:10043000F0829FB7F8940B8FEA89FB8980818062F4
:10044000CFCFCF93DF93EC01888D8823B9F0AA89B1
:10045000BB89E889F9898C9185FD03C0808186FD7F
:100460000DC00FB607FCF7CF8C9185FFF2CF8081CE
:1004700085FFEDCFCE010E94B201E9CFDF91CF9190
:100480000895CF93DF93EC0188819981DC01ED9190
:10049000FC910190F081E02D09952A813B81820F2A
:1004A000931F9B838A83DF91CF910895CF93DF932E
:1004B000EC0188819981DC01ED91FC910280F3814E
:1004C000E02D09952A813B81820F931F9B838A83AC
:1004D000DF91CF9108958F929F92AF92BF92CF926A
:1004E000DF92EF92FF920F931F93CF93DF93CDB7DD
:1004F000DEB766970FB6F894DEBF0FBECDBF6C01B6
:100500008E01095E1F4F78018AE0882E912CA12C64
:10051000B12CCB01BA01A50194010E94320F942F96
:10052000852F605DF80162938F01A901692F782FF3
:10053000411551056105710561F7A7014E1B5F0B60
:10054000BF01C6010E94560266960FB6F894DEBF40
:100550000FBECDBFDF91CF911F910F91FF90EF9014
:10056000DF90CF90BF90AF909F908F900895EF92C3
:10057000FF920F931F93CF93DF93EC017B0162E215
:100580000E9441028701F80161918F01662391F079
:10059000E8E1F1E0F280FF2049F0329681816813B2
:1005A000F9CF6CE5CE010E9441026F2DCE010E9471
:1005B0004102E9CF62E2CE01DF91CF911F910F910D
:1005C000FF90EF900C94410280339CF08A3324F02A
:1005D0008F3524F08B3724F481E0089581344CF07A
:1005E0008B35D4F393ED980F81E09230B0F380E037
:1005F00008958B32B9F7F0CFFC01848581110AC0D0
:10060000A185B285CD010196928781878C918387E0
:1006100081E08487838508951F93CF93DF93EC0156
:10062000162F0E94FC02811306C01C8681E0DF9118
:10063000CF911F91089580E0FACFCF93DF93EC0123
:10064000CE010E94FC028B303CF489304CF48823AC
:1006500049F081E0888710C08D3011F08032C9F7F1
:100660001C86EECF888581110AC081E090E0C15BD5
:10067000DF4F9983888380E0DF91CF91089582E0F6
:1006800090E0F5CFFC01828193810097C1F0248135
:100690003581468157812417350740F01382128235
:1006A0000190F081E02D81E080870895A9014F5FDE
:1006B0005F4F55834483820F931FFC01608308952D
:1006C0009F92AF92BF92CF92DF92EF92FF920F93E1
:1006D0001F93CF93DF9300D000D01F92CDB7DEB72A
:1006E0008C010E94FC02D82EF8011486F12CE12C1A
:1006F00060EFC62EC8010E94FC02F8011486D816CD
:1007000009F4BCC0811119C0F801E15BFF4F82E020
:1007100090E09183808380E00F900F900F900F9076
:100720000F90DF91CF911F910F91FF90EF90DF908D
:10073000CF90BF90AF909F9008958C3509F09CC0EA
:10074000C8010E94FC028823F9F2E8E1F1E0853754
:1007500009F086C0F801148654E0952EB12CA12C26
:10076000C8010E94FC02882379F281344CF4805342
:10077000803148F0F801E15BFF4F83E090E0C9CFA2
:100780008F7D8753F5CF44E0AA0CBB1C4A95E1F757
:10079000A82AF80114869A949110E2CFC501985DB9
:1007A0008115944020F4750123E0F222A3CFC50106
:1007B0009C5D81159440A8F4F3E0BF22B701762F29
:1007C0006627770F770F6A297B2990E080E00196F2
:1007D000603871058105910540F4C8010E9442030B
:1007E00089CFB50190E080E0F3CF1982262F2F73D7
:1007F00020682A8326E096958795779567952A95B0
:10080000D1F76032710580F4606C6B835E0124E087
:10081000A20EB11CF50162915F01662309F46ACF53
:10082000C8010E944203F6CF262F2F7320682B8326
:1008300086E0769567958A95E1F76031710538F421
:10084000606E6C835E0185E0A80EB11CE3CF60682A
:100850006C83CD825E01E6E0AE0EB11CDBCF32963A
:100860009081992309F486CF8913F9CF8181882358
:1008700009F480CFF8011486682FAFCF60E0C8017B
:100880000E944203F80182819381892B29F4E15B64
:10089000FF4F84E090E03DCF81E03ECFCF93DF93E8
:1008A000DC01EB01EC81FD818A819B810896E817D0
:1008B000F90740F481E08887F0E0E0E0CF01DF91C4
:1008C000CF9108953897FD83EC833097B9F3129652
:1008D000CD91DC911397209791F0CF018C1B9D0B4C
:1008E00023E0959587952A95E1F78D831396FC93E0
:1008F000EE9312971582148217821682DFCF11961B
:10090000FC93EE93F3CFCF92DF92EF92FF920F938F
:100910001F93CF93DF936C01FC01E080F180F7011E
:1009200002811381C081D181C017D10778F40115EC
:10093000110541F0209731F0BE01C8010E94451118
:10094000892B69F089918111FDCFEECFF601848169
:100950009581800F911FF70193838283E801CE0177
:10096000DF91CF911F910F91FF90EF90DF90CF908B
:1009700008954F925F926F927F92BF92CF92DF92D3
:10098000EF92FF920F931F93CF93DF93EC018B01B4
:10099000E42E0E941D03F82E811110C0F12C8F2D22
:1009A000DF91CF911F910F91FF90EF90DF90CF904B
:1009B000BF907F906F905F904F900895CE010E94FE
:1009C000FC02873209F4FFC00CF5823209F4FBC047
:1009D000CE010E94FC02B82E6E01FFE0CF0ED11CAA
:1009E000E12C36018B2D0E94E402882309F40DC10D
:1009F0002FE3E21609F409C11C86E394F601B192D3
:100A00006F01CE010E94FC02B82EECCF8B3509F4A9
:100A100055C08B37E9F6F801848180788062848341
:100A20001182108213821282EE2009F452C01C86B9
:100A3000CE010E941D03882309F4B0CF6DE7CE01DB
:100A40000E940C038111ABCFEA94E881F981828185
:100A500093819B838A838481958122813381821B48
:100A6000930B9F838E831D821C82CE010E94FC0209
:100A7000873209F46EC0823209F46BC0CE010E9445
:100A8000FC02D82E0E94E402882309F45DC01C8673
:100A90006D2DCE010E944203CE010E94FC02D82E91
:100AA0000E94E4028111F3CF60E0CE010E94420374
:100AB0008A819B81892B09F052C027C0F80184816B
:100AC0008078806484831182108213821282E11004
:100AD00007C0C15BDF4F85E090E0998388835ECFDC
:100AE0001C86CE010E941D03882309F457CF6DE5B3
:100AF000CE010E940C03811152CFEA946D857E8550
:100B0000C8010E944E04009729F4C15BDF4F84E0C6
:100B100090E0E3CF4E2DBC01CE010E94B9048823A2
:100B200009F43CCFCE010E941D03882309F436CF7F
:100B30006DE5CE010E940C03811131CF6CE2CE0134
:100B40000E940C038111DACFC15BDF4F83E090E09C
:100B5000C4CFCE010E946003882309F41FCFCE01C9
:100B60000E941D03882309F419CF6AE3CE010E9475
:100B70000C03882349F36A807B80F801C080D18010
:100B8000C114D10409F4BDC1F601668177816616EE
:100B9000770609F4B4C16114710449F06115710557
:100BA00031F0C3010E944511892B09F4A8C1F60157
:100BB0008581882309F4A5C1F8E08F02C0011124C2
:100BC000C80ED91EDDCFE881F981828193819B8394
:100BD0008A838481958122813381821B930B9F8339
:100BE0008E831D821C82CE010E946003F82E882312
:100BF00009F4D4CECE010E948304F8012481207828
:100C00002560248391838083CACEFE01EE0DF11D01
:100C100017868F85843781F4F80184818078866017
:100C2000848381E08083F4E0EF1609F4B8CEC15BE1
:100C3000DF4F82E090E051CF863641F4F8018481A5
:100C40008078866084831082F5E0EECF8E3621F4C2
:100C500024E0E212ECCFA3CE8B32D9F1F3018D3236
:100C6000D1F5FE017096BF2C808190ED980F9A30DF
:100C700018F08E3209F068CF6F0160E070E0CB01B0
:100C8000F6012191A0ED4A2E420E39E0341528F1EB
:100C90006A3949E97407840749E1940740F5AAE0F5
:100CA000B0E09B01AC010E942C0E512C712C612CE8
:100CB000A30192012095309540955095261737074E
:100CC00048075907A0F0640D751D861D971D6F011B
:100CD000D7CFFE017096B12CC7CF211108C0BB2021
:100CE00071F161307105810550E89507A0F0E12CA4
:100CF000EAE04E2E512C612C712C61157105F0E843
:100D00008F07910530F1A30192010E94320FCA01B1
:100D1000B901E394F2CFF801248120782A6024837A
:100D20009B01AC0188279927DC01821B930BA40B44
:100D3000B50B80839183A283B383FB2C30CEF80163
:100D40002481207828602483608371838283938345
:100D500026CED601F60121916F0130ED320F3A30E7
:100D600010F4E394F6CF2E32F1F4FD013196DF0159
:100D700031962C9150EDD52ED20E29E02D1598F0FC
:100D80006C3C3CEC73073CE08307910580F7AAE0DC
:100D9000B0E09B01AC010E942C0E6D0D711D811DF8
:100DA000911DEA94E4CF2C912F7D253409F08CC05D
:100DB00011962C9111972D32D9F512967F2CFD01A9
:100DC00030E020E0CE2C0E2C000CDD084AE0542E42
:100DD000DF01619040ED460D4A3008F043C0529E5D
:100DE000A001539E500D1124262D660C330B205369
:100DF0003109240F351FA9014C0D5D1D47325105E6
:100E00003CF3F80184817720D1F040E050E060E0CD
:100E100070E8B11003C040E050E0BA0180788C6007
:100E2000F80184834083518362837383F72CB7CDA9
:100E30002B3219F01196712CC2CF1296FCCF40E0E4
:100E400050E060E87FEFB11004C040E050E060E89F
:100E50007FE780788C60F8018483408351836283CC
:100E600073839DCD772019F03195219531094C91EF
:100E700041116ACEE901CE0DD11DE7FCDA950E9441
:100E80000D0D1C161D061CF5E12CC0FF0CC024E046
:100E9000E29EF0011124E053FF4F259135914591D9
:100EA00054910E946E0DD595C795E394209769F7EC
:100EB000B1109058F801248120782C60248360833D
:100EC0007183828393836BCD30E020E0D0CFD195C6
:100ED000C195D109E12C209759F3C0FF0CC044E023
:100EE000E49EF0011124E851FF4F25913591459181
:100EF00054910E946E0DD595C795E394ECCFB60141
:100F000013C0CE010E9483046C016D857E85C801EB
:100F10000E944E04FC01892B09F4F7CD848180687E
:100F20008483D782C682BF014E2DCE010E94B904B0
:100F3000882309F433CDCE010E941D03882309F4D0
:100F40002DCD6DE7CE010E940C03811128CD6CE2FE
:100F5000CE010E940C03882309F4F6CDCE010E9435
:100F60001D03811172CD1ACDFB0101900020E9F71C
:100F70003197AF01461B570B0C9456022F923F92AC
:100F80004F925F926F927F928F929F92AF92BF9299
:100F9000CF92DF92EF92FF920F931F93CF93DF9345
:100FA000CDB7DEB76C970FB6F894DEBF0FBECDBFDE
:100FB0008C011B01DC0114968C9114978F7786307D
:100FC00009F481C278F48230B0F0843008F059C25C
:100FD00012964D915C9113976D917C91C1010E9485
:100FE000560206C28C30B1F160F4883009F466C252
:100FF0008A3009F44CC269E271E0C1010E94B40771
:10100000EEC1803209F410C28034A9F76BE5C1014A
:101010000E944102F801008111810115110509F4B6
:10102000E3C1B101C8010E94BE07D80115968C9199
:10103000882309F4D9C1B8E08B02C0011124080F3C
:10104000191F0115110509F4CFC16CE2C1010E94FD
:101050004102E3CFF801C080D180E280F380A70194
:101060009601C701B6010E94080D8111C4CF20E08E
:1010700030E0A901C701B6010E94080D882379F06C
:10108000A7019601C701B6010E947E0E9B01AC012B
:10109000C701B6010E94080D882309F4ACCF20E0F7
:1010A00030E0A901C701B6010E94080D87FF08C002
:1010B0006DE2C1010E944102F7FAF094F7F8F09452
:1010C00020E836E948E15BE4C701B6010E94190F48
:1010D00087FD81C074E1A72EB12C00E210E0188ECC
:1010E0001F8AF501E053FF4F2591359145915491A9
:1010F000C701B6010E94190F87FD13C0F501E85121
:10110000FF4F2591359145915491C701B6010E9439
:101110006E0D6B017C012F89388D200F311F388FA8
:101120002F8B1595079534E0A31AB1088CEFA816FC
:101130008FEFB806B1F655245A9420E030E0A901AB
:10114000C701B6010E94190F18160CF04BC02CEA0B
:1011500035EC47E257E3C701B6010E94080D1816A7
:101160000CF440C0A52DB4E0AB02C0011124912CB9
:10117000812CFC01E859FF4F3F019C0120533F4F58
:1011800059013FEF531671F1F301E80DF91D659117
:10119000759185919491A70196010E94190F1816D7
:1011A0009CF4F501E80DF91D259135914591549177
:1011B000C701B6010E946E0D6B017C018F89988D6D
:1011C000801B910B988F8F8B159507955A9494E0FF
:1011D000891A9108D6CF00E210E055E0552E188EFE
:1011E0001F8AABCFC701B6010E94EA0E4B015C011A
:1011F0002B013C0106E080E492E4AFE0B0E0898F8F
:101200009A8FAB8FBC8F102F01509AE04916510472
:1012100061047104C8F0698D7A8D8B8D9C8D2AE0F4
:1012200030E040E050E00E94320F298F3A8F4B8F20
:101230005C8FC301B2012AE030E040E050E00E9440
:10124000320F29013A01DFCFC501B4010E940D0D13
:101250009B01AC01C701B6010E947D0E6B017C01B0
:10126000698D7A8D8B8D9C8D0E940D0D9B01AC013B
:10127000C701B6010E946E0D2B013C010E94EA0ECF
:101280006B017C010E940D0D9B01AC01C301B201F9
:101290000E947D0E9B01AC010E947E0E0E94EA0E10
:1012A000C60ED71EE81EF91E898D9A8DAB8DBC8D9A
:1012B000C816D906EA06FB06D8F09FEF891A990AE4
:1012C000A90AB90AAF89B88DAB2B39F1BAE08B16F0
:1012D0009104A104B10408F1EF89F88D3196F88FDB
:1012E000EF8BC12CD12C7601812C912C540183944D
:1012F0002AE0422E512C612C712CC701B601A301AA
:1013000092010E94320F672B682B692B51F4111642
:1013100044F469017A011150F0CFC12CD12C76012F
:10132000E7CFB501A401C1010E946B02112371F145
:101330004E01F1E18F0E911C012F54019AE0492ECC
:10134000512C612C712C015068F0C701B601A3012A
:1013500092010E94320F605DD4016E934D016901CC
:101360007A01F1CF812F90E0BC0160957095F50175
:10137000E81BF90B31978EE2808344275527461BE3
:10138000570B6A0D7B1DC1010E945602EF89F88D33
:10139000EF2B29F165E6C1010E9441020F89188DEA
:1013A00017FF07C06DE2C1010E944102119501952E
:1013B0001109FE0177969F018AE0E82EF12CC80101
:1013C000B7010E941E0F805D82938B01672BB9F7D6
:1013D000A9014E1B5F0BBF01C1010E945602D10142
:1013E00012968D919C9107C06DE5C1010E9441024A
:1013F000F101828193816C960FB6F894DEBF0FBE27
:10140000CDBFDF91CF911F910F91FF90EF90DF90B3
:10141000CF90BF90AF909F908F907F906F905F9094
:101420004F903F902F9008956BE7C1010E944102B9
:10143000D8010D911C910115110509F1F801668182
:101440007781C1010E94B7026AE3C1010E94410293
:10145000B101C8010E94BE07D80115968C9188235E
:1014600071F0B8E08B02C0011124080F191F01159B
:10147000110529F06CE2C1010E944102DCCF6DE749
:10148000B4CF6D917C91C1010E94B702B1CFCD90D4
:10149000DD90ED90FC90B701A601F7FE0BC06DE268
:1014A000C1010E94410244275527BA014C195D0928
:1014B0006E097F09C1010E946B029ACF4D915D9127
:1014C0006D917C91F7CF8C916EE271E0811102C039
:1014D00063E371E0C1010E94B4078ACF0F931F93A9
:1014E000CF93DF93EC0188819981009759F02A818D
:1014F0003B812617370730F081E0DF91CF911F91B4
:101500000F9108958B016F5F7F4F0E947F100097AE
:1015100059F0998388831B830A832C813D81232B77
:1015200059F7FC011082E8CF80E0E7CF1F920F92BD
:101530000FB60F9211242F933F938F939F93AF93E6
:10154000BF938091530190915401A0915501B091A6
:1015500056013091520126E0230F2D3758F502969F
:10156000A11DB11D2093520180935301909354010A
:10157000A0935501B093560180914E0190914F0177
:10158000A0915001B09151010196A11DB11D809310
:101590004E0190934F01A0935001B0935101BF9120
:1015A000AF919F918F913F912F910F900FBE0F9010
:1015B0001F90189529E8230F0396A11DB11DD2CFC6
:1015C0001F920F920FB60F9211242F933F934F93B8
:1015D0005F936F937F938F939F93AF93BF93EF939B
:1015E000FF9387E591E00E94B201FF91EF91BF91D7
:1015F000AF919F918F917F916F915F914F913F91AB
:101600002F910F900FBE0F901F9018951F920F9261
:101610000FB60F9211242F938F939F93EF93FF9305
:10162000E0916701F09168018081E0916D01F09196
:101630006E0182FD1BC09081809170018F5F8F735E
:1016400020917101821741F0E0917001F0E0E95AB8
:10165000FE4F958F80937001FF91EF919F918F9135
:101660002F910F900FBE0F901F9018958081F4CF8F
:10167000CF93DF93CDB7DEB7C657D1090FB6F89435
:10168000DEBF0FBECDBF789484B5826084BD84B5C3
:10169000816084BD85B5826085BD85B5816085BD6D
:1016A00080916E00816080936E0010928100809125
:1016B00081008260809381008091810081608093AD
:1016C0008100809180008160809380008091B100D2
:1016D00084608093B1008091B00081608093B000FD
:1016E00080917A00846080937A0080917A00826091
:1016F00080937A0080917A008E7F80937A00809127
:101700007A00806880937A001092C100E0916701AE
:10171000F091680182E08083E0916301F0916401BF
:101720001082E0916501F091660188E0808310925B
:101730006F01E0916B01F0916C0186E08083E09194
:101740006901F0916A01808180618083E091690183
:10175000F0916A01808188608083E0916901F09155
:101760006A01808180688083E0916901F0916A015B
:1017700080818F7D8083E5EBF0E02491E1EAF0E069
:101780008491882399F090E0880F991FFC01E0581C
:10179000FF4FA591B491FC01E657FF4F85919491BD
:1017A0008FB7F894EC91E22BEC938FBF32E5E32EE8
:1017B000F12CEC0EFD1E8FEFE81AF80A8CE3882E50
:1017C00081E0982E92E5C92ED12CCC0EDD1E8AE048
:1017D000C80ED11C20E0A22E20E0B22E87E591E0B9
:1017E0000E949201892B09F4DAC081E00E94AB00CB
:1017F000E3961FAE1EAEE397E5961FAE1EAEE597CD
:10180000E7961FAE1EAEE79770E060E0CE018F58FE
:101810009F4F0E946E0AE3962EAD3FADE397811174
:101820003BC02115310519F0C9010E94F60FE3965E
:101830001FAE1EAEE397E7961FAE1EAEE797E59686
:101840001FAE1EAEE5970E944401E7964EAD5FAD18
:10185000E79797FD2BC089831A828A010F5F1F4F7C
:10186000B801CE018F589F4F0E946E0A882359F30A
:10187000E3962EAD3FADE397E7968EAD9FADE7972C
:10188000BE016F5F7F4F820F931F0E944E11E7963C
:101890001FAF0EAFE797D7CFE7961FAE1EAEE79705
:1018A00068E271E0C9010E944E11CDCFE3966EADA2
:1018B0007FADE39787E591E00E94F40042E050E0BD
:1018C00069E371E087E591E00E94F4008FEF9FEFFC
:1018D0000E945A0F9C0121503109009711F430E009
:1018E00020E065969FAF8EAF659767969FAF8EAFEE
:1018F000679769963FAF2EAF69976B963FAF2EAF54
:101900006B97A1961FAEA1976C961FAE6C97AB9686
:10191000FFAEEEAEAB9788E0FE01E759FF4FDE0168
:10192000AF59BF4F01900D928A95E1F788E0FE0113
:10193000EF59FF4FDE01119601900D928A95E1F764
:1019400019869B868A861D86FF86EE8662961FAE66
:101950001EAE62974AE0B601CE0101960E94B9041C
:1019600087E591E09A8389831C821B82BE016F5FA9
:101970007F4FC6010E94BE0780E00E94AB006596C3
:101980008EAD9FAD6597009711F00E94F60FE3961C
:101990008EAD9FADE397009711F00E94F60FA11452
:1019A000B10409F41BCF0E949E01882309F406CFDD
:1019B0000E94000003CFE7E5F1E01382128288EE77
:1019C00093E0A0E0B0E084839583A683B7838AE0A8
:1019D00091E09183808385EC90E09587848784EC07
:1019E00090E09787868780EC90E0918B808B81ECEC
:1019F00090E0938B828B82EC90E0958B848B86ECCD
:101A000090E0978B868B118E128E138E148E089514
:101A10000E944A0D08F481E00895E89409C097FBFC
:101A20003EF490958095709561957F4F8F4F9F4FB5
:101A30009923A9F0F92F96E9BB279395F6958795F9
:101A400077956795B795F111F8CFFAF4BB0F11F4BC
:101A500060FF1BC06F5F7F4F8F4F9F4F16C0882363
:101A600011F096E911C0772321F09EE8872F762F99
:101A700005C0662371F096E8862F70E060E02AF0DA
:101A80009A95660F771F881FDAF7880F96958795C6
:101A900097F90895990F0008550FAA0BE0E8FEEF9B
:101AA00016161706E807F907C0F012161306E40722
:101AB000F50798F0621B730B840B950B39F40A261B
:101AC00061F0232B242B252B21F408950A2609F4F9
:101AD000A140A6958FEF811D811D08950E94810D63
:101AE0000C94F20D0E94E40D38F00E94EB0D20F0F2
:101AF000952311F00C94DB0D0C94E10D11240C9442
:101B0000260E0E94030E70F3959FC1F3950F50E0CF
:101B1000551F629FF001729FBB27F00DB11D639F9F
:101B2000AA27F00DB11DAA1F649F6627B00DA11D45
:101B3000661F829F2227B00DA11D621F739FB00DEB
:101B4000A11D621F839FA00D611D221F749F33275B
:101B5000A00D611D231F849F600D211D822F762FF4
:101B60006A2F11249F5750409AF0F1F088234AF0D1
:101B7000EE0FFF1FBB1F661F771F881F915050403D
:101B8000A9F79E3F510580F00C94DB0D0C94260EB6
:101B90005F3FE4F3983ED4F3869577956795B795C4
:101BA000F795E7959F5FC1F7FE2B880F911D9695DE
:101BB000879597F9089597F99F6780E870E060E04E
:101BC00008959FEF80EC089500240A9416161706D6
:101BD00018060906089500240A941216130614061E
:101BE00005060895092E0394000C11F4882352F081
:101BF000BB0F40F4BF2B11F460FF04C06F5F7F4F39
:101C00008F4F9F4F089557FD9058440F551F59F01F
:101C10005F3F71F04795880F97FB991F61F09F3FD9
:101C200079F087950895121613061406551FF2CF02
:101C30004695F1DF08C0161617061806991FF1CF52
:101C400086957105610508940895E894BB27662779
:101C50007727CB0197F908950E946E0EA59F900DEE
:101C6000B49F900DA49F800D911D112408952F9273
:101C70003F924F925F926F927F928F929F92AF921C
:101C8000BF92CF92DF92EF92FF920F931F93CF9369
:101C9000DF93CDB7DEB7CA1BDB0B0FB6F894DEBF00
:101CA0000FBECDBF09942A88398848885F846E8426
:101CB0007D848C849B84AA84B984C884DF80EE8070
:101CC000FD800C811B81AA81B981CE0FD11D0FB679
:101CD000F894DEBF0FBECDBFED010895A29FB00105
:101CE000B39FC001A39F700D811D1124911DB29F50
:101CF000700D811D1124911D08955058BB27AA27EE
:101D00000E94950E0C94F20D0E94E40D38F00E9492
:101D1000EB0D20F039F49F3F19F426F40C94E10DFB
:101D20000EF4E095E7FB0C94DB0DE92F0E94030E07
:101D300058F3BA17620773078407950720F079F400
:101D4000A6F50C94250E0EF4E0950B2EBA2FA02DBF
:101D50000B01B90190010C01CA01A0011124FF2758
:101D6000591B99F0593F50F4503E68F11A16F04053
:101D7000A22F232F342F4427585FF3CF4695379552
:101D80002795A795F0405395C9F77EF41F16BA0B17
:101D9000620B730B840BBAF09150A1F0FF0FBB1FC5
:101DA000661F771F881FC2F70EC0BA0F621F731F0E
:101DB000841F48F4879577956795B795F7959E3F6B
:101DC00008F0B0CF9395880F08F09927EE0F9795FC
:101DD000879508950E940B0E88F09F5798F0B92FB1
:101DE0009927B751B0F0E1F0660F771F881F991F50
:101DF0001AF0BA95C9F714C0B13091F00E94250EBF
:101E0000B1E008950C94250E672F782F8827B85FCE
:101E100039F0B93FCCF3869577956795B395D9F7A7
:101E20003EF490958095709561957F4F8F4F9F4FB1
:101E300008950E944A0D08F48FEF0895AA1BBB1B5A
:101E400051E107C0AA1FBB1FA617B70710F0A61BBA
:101E5000B70B881F991F5A95A9F780959095BC01DB
:101E6000CD010895A1E21A2EAA1BBB1BFD010DC0D6
:101E7000AA1FBB1FEE1FFF1FA217B307E407F5073A
:101E800020F0A21BB30BE40BF50B661F771F881F16
:101E9000991F1A9469F760957095809590959B01AC
:101EA000AC01BD01CF010895EE0FFF1F0590F49125
:101EB000E02D09940F931F93CF93DF938230910508
:101EC00010F482E090E0E091F601F091F70130E04B
:101ED00020E0B0E0A0E0309799F42115310509F435
:101EE0004AC0281B390B24303105D8F58A819B81E3
:101EF0006115710589F1FB0193838283FE0111C095
:101F0000408151810281138148175907E0F0481739
:101F1000590799F4109761F012960C931297139643
:101F20001C933296CF01DF91CF911F910F910895AD
:101F30000093F6011093F701F4CF2115310551F00C
:101F40004217530738F0A901DB019A01BD01DF01F7
:101F5000F801C1CFEF01F9CF9093F7018093F6011B
:101F6000CDCFFE01E20FF31F8193919322503109EF
:101F700039832883D7CF2091F4013091F501232BA9
:101F800041F420910201309103013093F501209337
:101F9000F40120910001309101012115310541F436
:101FA0002DB73EB74091040150910501241B350B1C
:101FB000E091F401F091F501E217F307A0F42E1B74
:101FC0003F0B2817390778F0AC014E5F5F4F24179D
:101FD000350748F04E0F5F1F5093F5014093F40111
:101FE000819391939FCFF0E0E0E09CCFCF93DF937C
:101FF0000097E9F0FC01329713821282A091F6015A
:10200000B091F701ED0130E020E01097A1F42081BC
:102010003181820F931F2091F4013091F50128172F
:10202000390709F061C0F093F501E093F401DF9105
:10203000CF910895EA01CE17DF07E8F54A815B8169
:102040009E0141155105B1F7E901FB83EA834991EE
:102050005991C40FD51FEC17FD0761F48081918160
:102060000296840F951FE901998388838281938169
:102070009B838A83F0E0E0E012968D919C91139708
:102080000097B9F52D913C911197CD010296820FE1
:10209000931F2091F4013091F5012817390739F683
:1020A000309751F51092F7011092F601B093F501B7
:1020B000A093F401BCCFD383C28340815181840FAC
:1020C000951FC817D90761F44E5F5F4F88819981CA
:1020D000480F591F518340838A819B819383828358
:1020E0002115310509F0B0CFF093F701E093F60127
:1020F0009ECFFD01DC01C0CF13821282D7CFB0E0AA
:10210000A0E0E5E8F0E10C94390E8C01009751F461
:10211000CB010E945A0F8C01C801CDB7DEB7E0E1B8
:102120000C94550EFC01E60FF71F9C01225031095B
:10213000E217F30708F49DC0D901CD91DC91119706
:10214000C617D70798F0C530D10530F3CE010497F4
:102150008617970708F3C61BD70B2297C193D19315
:102160006D937C93CF010E94F60FD6CF5B01AC1A22
:10217000BD0A4C018C0E9D1EA091F601B091F70195
:10218000512C412CF12CE12C109731F58091F40168
:102190009091F5018815990509F05CC0461657061F
:1021A00008F058C08091000190910101009741F41E
:1021B0008DB79EB74091040150910501841B950B8A
:1021C000E817F90708F055C0F093F501E093F40122
:1021D000F90171836083A0CF8D919C911197129624
:1021E0006C90129713967C901397A815B90559F522
:1021F0006C0142E0C40ED11CCA14DB0420F1AC0116
:102200004A195B09DA011296159780F0628273828F
:1022100051834083D9016D937C93E114F10471F0F3
:10222000D7011396FC93EE93129776CF22968C0FDC
:102230009D1FF90191838083F301EFCFF093F701A4
:10224000E093F60169CF4816590608F42C017D0188
:10225000D3019ACFCB010E945A0F7C01009749F01D
:10226000AE01B8010E943C11C8010E94F60F87011F
:1022700053CF10E000E050CFFB01DC0102C0019021
:102280000D9241505040D8F70895FB01DC018D912B
:10229000019080190110D9F3990B0895FB01DC011D
:0E22A00001900D920020E1F70895F894FFCF11
:1022AE000000F801800000000000D401F4002101BC
:1022BE0021029201300184012F2F22225C5C6208E0
:1022CE00660C6E0A720D7409006E756C6C00747279
:1022DE0075650066616C7365000D0A007B226B6587
:0E22EE0079223A202276616C7565227D00000F
:00000001FF
